S012000041546D656761333238702E73726563D6
S11300000C9434000C9451000C9451000C94510045
S11300100C9451000C9451000C9451000C94510018
S11300200C9451000C9451000C9451000C94510008
S11300300C9451000C9451000C9451000C945100F8
S11300400C9451000C9451000C9451000C945100E8
S11300500C9451000C9451000C9451000C945100D8
S11300600C9451000C94510011241FBECFEFD8E022
S1130070DEBFCDBF11E0A0E0B1E0E2EEF0E002C0EF
S113008005900D92A030B107D9F721E0A0E0B1E0CE
S113009001C01D92A130B207E1F70E9455000C94F3
S11300A06F000C94000008950895109200010E94BE
S11300B0530080910001882319F0853020F405C095
S11300C00E94540002C010920001809100018F5FD1
S11300D080930001853068F310920001EACFF89410
S10500E0FFCF4C
S9030000FC
