S0180000466F726E6F5F41546D656761333238702E737265636D
S11300000C9434000C9451000C9451000C94510045
S11300100C9451000C9451000C9451000C94510018
S11300200C9451000C9451000C9451000C94510008
S11300300C9451000C9451000C9451000C945100F8
S11300400C9451000C9451000C9451000C945100E8
S11300500C9451000C9451000C9451000C945100D8
S11300600C9451000C94510011241FBECFEFD8E022
S1130070DEBFCDBF11E0A0E0B1E0EAE5F4E102C0EB
S113008005900D92AC39B107D9F721E0ACE9B1E0A4
S113009001C01D92A93FB207E1F70E94A3000C948E
S11300A02B0A0C9400008FEF80939F0180E00E9444
S11300B0F90608950E94D50680939F018F3F09F4A5
S11300C041C0823011F128F4882359F0813099F02D
S11300D030C0833021F18F3F61F583E00E94F9063F
S11300E0089580E00E94700683E00E942B0187E05F
S11300F00E94F906089581E00E94700680E00E9443
S11301002B0184E00E94F906089582E00E947006A3
S113011081E00E942B0185E00E94F906089583E0A6
S11301200E94700682E00E942B0186E00E94F9067C
S1130130089580E00E94700683E00E942B0183E012
S11301400E94F90608951092A3010E9439040E94A6
S1130150EA030E946A060E94F5060E9453000E9468
S11301602E010E94E9070E94E4000E947B050E9480
S1130170F2050E9454018091A301823099F028F481
S1130180882341F0813049F013C0833071F084300A
S113019089F00EC00E94C3070DC00E945A000E943D
S11301A0F00608C00E94F70705C00E94EA0002C0DA
S11301B01092A3018091A3018F5F8093A3018530E6
S11301C0A0F21092A301D1CF1092A50183E08093F5
S11301D0A4010895EF92FF920F931F93CF93DF939F
S11301E0E091A401F0E0EE0FFF1FEE0FFF1FE35CB0
S11301F0FE4FE080F1800281138181E00E942D088E
S1130200EC018091A401833021F461E00E94A004F8
S11302101BC08091A501882319F0813061F014C0BE
S113022061E083E00E94A004EC16FD0668F081E022
S11302308093A50109C060E083E00E94A004C01778
S1130240D10710F01092A501DF91CF911F910F916A
S1130250FF90EF9008958093A40108951092B20145
S11302601092B30110927E0080E01BC0282F30E072
S1130270F901EE0FFF1FEA55FE4F11821082F901BA
S1130280ED5AFE4F9081913059F4863048F4E8E7F6
S1130290F0E04681D901A35BBE4F9C91942B9683D9
S11302A08F5F863018F308958091B201823079F11E
S11302B028F4882341F08130F1F062C08330B9F131
S11302C08430E9F15DC08091B4018F5F8093B40103
S11302D0863010F01092B401E091B401F0E0ED5AD0
S11302E0FE4F8081813009F04DC08093B20182E3DA
S11302F08093B30108958091B301882321F0815044
S11303008093B301089582E08093B2010895E8E7F1
S1130310F0E094818091B401892B848387E88283FF
S113032082818064828383E08093B2010895809106
S11303307A0086FD27C084E08093B20108958091FD
S11303407C0085FF04C080917900282F30E08091E3
S11303507C0085FD09C0E8E7F0E02081318180E080
S1130360932FAC01422B9A01E091B401F0E0EE0F1F
S1130370FF1FEA55FE4F318320831092B201089586
S11303801092B2010895E8E7F0E094819F77948396
S1130390948190649483823060F4811103C09481C9
S11303A090629483813029F4E8E7F0E084818F7DC2
S11303B08483623098F4611105C0E8E7F0E082813B
S11303C08F7D8283613029F4E8E7F0E082818062E6
S11303D08283E8E7F0E08381887F83830895863011
S11303E048F4E82FF0E0EE0FFF1FEA55FE4F80813E
S11303F09181089580E090E00895833058F5683045
S113040048F570E0FB01EF59FE4F2081FB01E75AEC
S1130410FE4F9081E82FF0E0EE0FFF1FE050FF4FFA
S11304200190F081E02D413059F018F0423079F01C
S113043008958181982391838281282B22830895B2
S11304408181892381838281982392830895818184
S1130450282B21830895E82FF0E0EE0FFF1FE050D2
S1130460FF4FA081B181413061F412969C911297A3
S1130470E62FF0E0EF59FE4F8081892B12968C9382
S1130480089512969C911297E62FF0E0E75AFE4FDA
S11304908081892312968C930895E82FF0E0EE0F63
S11304A0FF1FE050FF4F0190F081E02D9081E62F77
S11304B0F0E0EF59FE4F8081892309F081E008952F
S11304C0653608F064E6823001F128F4882349F0A7
S11304D0813089F00895843071F110F18530B1F1E3
S11304E008952FEF629FC001112464E670E00E941A
S11304F0D20967BD08952FEF629FC001112464E6FD
S113050070E00E94D20968BD08952FEF629FC00178
S1130510112464E670E00E94D20960938900089572
S11305202FEF629FC001112464E670E00E94D2099B
S113053060938B0008952FEF629FC001112464E63D
S113054070E00E94D2096093B30008952FEF629F78
S1130550C001112464E670E00E94D2096093B400E3
S113056008958F929F92AF92BF92EF92FF920F9352
S11305701F93CF93DF93CDB7DEB765970FB6F8948B
S1130580DEBF0FBECDBF982F7B01082F10E0F8010E
S1130590E456FE4F8081282F30E02617370709F4F0
S11305A0E2C0913009F44CC020F0923009F48FC0BD
S11305B0D5C0CB01A0E0B0E02227382F492F5A2F15
S11305C060E074E284EF90E00E94E60949015A0178
S11305D08AE0E9E1F1E0DE01119601900D928A953D
S11305E0E1F785E0E3E2F1E0DE011F9601900D9270
S11305F08A95E1F780E01DC0A82FB0E0FD01EE0F61
S1130600FF1F21E030E02C0F3D1FE20FF31F40815C
S1130610518160E070E0481559056A057B0540F09A
S11306208FE090E08C0F9D1FA80FB91F8C9104C020
S11306308F5F853008F380E0811191C085E08FC021
S11306409B01AFEFB3E00E94080A9B01AC0160E09C
S113065074E284EF90E00E94E60949015A018AE0BD
S1130660E9E1F1E0DE01119601900D928A95E1F73E
S113067085E0E3E2F1E0DE011F9601900D928A9598
S1130680E1F780E01DC0A82FB0E0FD01EE0FFF1FD1
S113069021E030E02C0F3D1FE20FF31F4081518118
S11306A060E070E0481559056A057B0540F08FE06D
S11306B090E08C0F9D1FA80FB91F8C9104C08F5F11
S11306C0853008F380E081114AC085E048C0CB0141
S11306D0A0E0B0E02227382F492F5A2F60E074E2BF
S11306E084EF90E00E94E60949015A018EE0E8E2B5
S11306F0F1E0DE01119601900D928A95E1F787E011
S1130700E6E3F1E0DE011F9601900D928A95E1F790
S113071080E01DC0A82FB0E0FD01EE0FFF1F21E017
S113072030E02C0F3D1FE20FF31F4081518160E048
S113073070E0481559056A057B0540F08FE090E0AC
S11307408C0F9D1FA80FB91F8C9104C08F5F873039
S113075008F380E0811103C087E001C080E0F80164
S1130760E456FE4FE08265960FB6F894DEBF0FBEE6
S1130770CDBFDF91CF911F910F91FF90EF90BF906C
S1130780AF909F908F900895CF93DF93C82FD62F6B
S11307900E94B102C13049F018F0C23069F012C0B1
S11307A095B5987F892B85BD0DC0E0E8F0E0918177
S11307B0987F892B818306C0E0EBF0E09181987FDC
S11307C0892B8183EC2FF0E0E456FE4FD083DF9138
S11307D0CF910895CF93DF93D0E0C0E044C0EC2FD5
S11307E0F0E0E759FE4F80818130E1F5C230B1F08D
S11307F028F4CC2349F0C13061F02BC0C430E1F0BF
S1130800A0F0C53001F125C084B5816C84BDD0E071
S113081020C084B5816384BDD0E01BC0E0E8F0E073
S11308208081816C8083D1E014C0E0E8F0E08081B5
S113083081638083D1E00DC0E0EBF0E08081816CC6
S11308408083D2E006C0E0EBF0E0808181638083A6
S1130850D2E060EA7FE08D2F0E94C40360E08C2F19
S11308600E946002CF5FC73008F4B9CFDF91CF9107
S11308700895CF93DF93C0E00CC0EC2FF0E0EE0FAF
S1130880FF1FE05FFE4F42E0618180810E94FD0115
S1130890CF5FC43090F3C0E00CC0EC2FF0E0EE0F5B
S11308A0FF1FE85FFE4F40E0618180810E94FD01EF
S11308B0CF5FC43090F342E064E082E00E94FD0127
S11308C042E067E082E00E94FD0142E060E080E0F7
S11308D00E94FD01C6E0D1E042E0698188810E9466
S11308E0FD0141E0698188810E942B0261E081E081
S11308F00E94C3011092DE0185E08093B50180E07F
S11309001AC0282F30E0F901EB58FE4F9081913046
S113091089F4A901440F551FFA01EE52FE4F1182CA
S11309201082FA01EA51FE4F11821082F901E1525C
S1130930FE4F10828F5F863020F3DF91CF910895B0
S113094090E0FC01EA54FE4F21E02083611104C0D1
S1130950FC01EA54FE4F1082089590E00EC0292F46
S113096030E0F901EA54FE4F41E04083811104C0B4
S1130970F901EA54FE4F10829F5F943080F308958A
S1130980282F843080F48091E50190E0A0E0B0E06D
S113099004C0B695A795979587952A95D2F780FDBB
S11309A004C080E0089580E0089581E008950F93E5
S11309B01F93CF93C0E00CC00C2F10E08C2F0E942B
S11309C0C004F801E654FE4F8083813029F0CF5FE4
S11309D0C43090F384E001C08C2FCF911F910F910C
S11309E008950E94F5050895863048F4E82FF0E054
S11309F0EE0FFF1FEE52FE4F8081918108950895FE
S1130A00882329F063E685E00E946002089560E08F
S1130A1085E00E9460020895682F85E00E946002CC
S1130A200895BC0182E00E94C4030895CF93C0E0FE
S1130A301BC08C2F90E0FC01E158FE4F2081213037
S1130A4091F4FC01EA54FE4F2081211102C040E0E0
S1130A5001C041E0880F991FFC01E05FFE4F6181F6
S1130A6080810E942B02CF5FC43018F3CF91089588
S1130A700F931F93CF93C0E038C00C2F10E0F80100
S1130A80E558FE4F8081813079F5F801EE0FFF1FA4
S1130A90E85FFE4F618180810E944D02811112C086
S1130AA081E090E0A0E0B0E00C2E04C0880F991F14
S1130AB0AA1FBB1F0A94D2F72091E501822B8093D1
S1130AC0E50112C081E090E0A0E0B0E00C2E04C08B
S1130AD0880F991FAA1FBB1F0A94D2F78095909183
S1130AE0E50189238093E501CF5FC43030F2CF91D3
S1130AF01F910F9108950E9416050E9438050895CC
S1130B00CF93DF938091DE01813019F0833031F08F
S1130B105CC060E081E00E94C30157C0C091B50190
S1130B20D0E0FE01EB58FE4F8081813009F044C0D3
S1130B30FE01E152FE4F8081883030F5FE01E1591B
S1130B40FE4F80810E94EF01CC0FDD1FCA53DE4FA0
S1130B5099838883E091B501F0E0DF01AA0FBB1F00
S1130B60ED01CA53DE4F88819981AA51BE4F2D9160
S1130B703C911197820F931F8D939C93E152FE4FEA
S1130B8080818F5F808318C0CE01880F991FFC017C
S1130B90EA51FE4F20813181369527953695279568
S1130BA036952795DC01AE52BE4F2D933C931182AE
S1130BB01082C152DE4F18828091B5018F5F8093FD
S1130BC0B501863010F01092B5018091DE018F5F7F
S1130BD08093DE01843018F081E08093DE01DF91A0
S1130BE0CF9108950E94800508950F931F93CF938A
S1130BF0DF93EC0100E066C040E064E082E00E9424
S1130C002B0210E026C0FE01E00FF11D808127E0D9
S1130C1030E0211B310990E002C0959587952A9513
S1130C20E2F780FF06C041E060E080E00E942B0212
S1130C3005C040E060E080E00E942B0241E067E0F4
S1130C4082E00E942B0240E067E082E00E942B02D7
S1130C501F5F1830C0F210E027C0E02FF0E0ED571E
S1130C60FE4F808127E030E0211B310990E002C073
S1130C70959587952A95E2F780FF06C041E060E0EC
S1130C8080E00E942B0205C040E060E080E00E940A
S1130C902B0241E067E082E00E942B0240E067E023
S1130CA082E00E942B021F5F1830B8F28DEE92E0B2
S1130CB00197F1F700C0000041E064E082E00E9487
S1130CC02B020F5F043008F497CFDF91CF911F916F
S1130CD00F91089584E08093F3011092F201089536
S1130CE0863010F48093F30108958091F3018230EB
S1130CF001F128F4882341F0813071F008958330A4
S1130D0029F1843029F0089581E00E94AD0408950A
S1130D1081E00E94AD04089560E080E00E94A00498
S1130D2061E081E00E94A00461E082E00E94A004EE
S1130D30089560E080E00E94A00460E081E00E94E9
S1130D40A00461E082E00E94A004089560E080E0D5
S1130D500E94A00460E081E00E94A00460E082E0C0
S1130D600E94A00408950E94D704823099F028F4C8
S1130D70882341F0813051F00895833079F0843034
S1130D8081F0089581E08093F201089582E08093D8
S1130D90F201089583E08093F20108951092F20124
S1130DA008958FEF8093F20108950E94B306809115
S1130DB0F20108958091F301823039F0833041F0DB
S1130DC0813049F083E991E008C08BE891E005C0E7
S1130DD087E891E002C08FE891E00E94F104089551
S1130DE00E9475060E94DA06089583E08093F40158
S1130DF0089593E090931801883050F4809318017B
S1130E00833020F081E08093F40108958093F4010D
S1130E10089580E00E94000580E0089520E030E01D
S1130E2008C0E9EFF0E03197F1F700C000002F5F50
S1130E303F4F28173907A8F308951F93CF93DF93E3
S1130E40EB01142F009739F480E00E940005CE01D5
S1130E500E940E070BC00E941105812F0E940C05F1
S1130E60CE010E940E0780E00E940005DF91CF9121
S1130E701F91089544E160ED77E082E793E10E94D9
S1130E801D0744E168EB7BE082E793E10E941D07C4
S1130E9080E00895CF9380911801853039F118F4DA
S1130EA0843039F06DC08630F1F1873009F465C0C3
S1130EB067C044E160ED77E08FE190E00E941D0798
S1130EC044E168EB7BE082E793E10E941D0744E183
S1130ED068EE73E08BE492E00E941D074AE068EB41
S1130EE07BE081E99EE00E941D074AC044E160ED79
S1130EF077E08FE190E00E941D0744E168EB7BE01E
S1130F0080E99BE00E941D0744E160ED77E08FE1FA
S1130F1090E00E941D0744E168EB7BE08AE292E0E6
S1130F200E941D072DC044E168EE73E089E490E05F
S1130F300E941D0744E168EB7BE08AE292E00E9494
S1130F401D0744E168EE73E087E590E00E941D0709
S1130F5044E164EC79E082E793E10E941D0710C04C
S1130F6044E160ED77E087E194E00E941D0788EC9E
S1130F7090E00E940E07CF5F01C0C0E0CA3080F34A
S1130F8080E0CF9108958091F401813071F028F0D0
S1130F90823099F08330C9F008950E943A07811194
S1130FA017C083E08093F40108950E944A078111D9
S1130FB00FC083E08093F40108950E940907811112
S1130FC007C083E08093F401089580E00E94000547
S1130FD0089580E009C0E82FF0E0EE0FFF1FEB500A
S1130FE0FE4F118210828F5F8230A8F308950F9311
S1130FF01F93CF93C0E02BC00C2F10E0F801E956EB
S1131000FE4F8081813011F5F801E756FE4F808153
S11310100E94F40480579E4FBC0180E090E00E943F
S1131020D70820E030E040E85EE30E94650920E054
S113103030E048E452E40E943C08000F111F0B50BA
S11310401E4F0E94A808F80171836083CF5FC230ED
S113105098F2CF911F910F910895823048F4E82FB0
S1131060F0E0EE0FFF1FEB50FE4F80819181089559
S113107080E090E008955058BB27AA270E945308A7
S11310800C942B090E941D0938F00E94240920F0B9
S113109039F49F3F19F426F40C941A090EF4E095E0
S11310A0E7FB0C941409E92F0E943C0958F3BA1782
S11310B0620773078407950720F079F4A6F50C946A
S11310C05E090EF4E0950B2EBA2FA02D0B01B90189
S11310D090010C01CA01A0011124FF27591B99F0AA
S11310E0593F50F4503E68F11A16F040A22F232FB6
S11310F0342F4427585FF3CF469537952795A79506
S1131100F0405395C9F77EF41F16BA0B620B730BAC
S1131110840BBAF09150A1F0FF0FBB1F661F771F1D
S1131120881FC2F70EC0BA0F621F731F841F48F4D2
S1131130879577956795B795F7959E3F08F0B0CF5B
S11311409395880F08F09927EE0F97958795089542
S11311500E94440988F09F5798F0B92F9927B751F6
S1131160B0F0E1F0660F771F881F991F1AF0BA9547
S1131170C9F714C0B13091F00E945E09B1E008953E
S11311800C945E09672F782F8827B85F39F0B93F30
S1131190CCF3869577956795B395D9F73EF49095FA
S11311A08095709561957F4F8F4F9F4F0895E89478
S11311B009C097FB3EF490958095709561957F4F9B
S11311C08F4F9F4F9923A9F0F92F96E9BB27939549
S11311D0F695879577956795B795F111F8CFFAF459
S11311E0BB0F11F460FF1BC06F5F7F4F8F4F9F4F8A
S11311F016C0882311F096E911C0772321F09EE8E8
S1131200872F762F05C0662371F096E8862F70E04D
S113121060E02AF09A95660F771F881FDAF7880F27
S11312209695879597F9089597F99F6780E870E0F8
S113123060E008959FEF80EC089500240A94161648
S1131240170618060906089500240A9412161306B0
S1131250140605060895092E0394000C11F488233E
S113126052F0BB0F40F4BF2B11F460FF04C06F5F5A
S11312707F4F8F4F9F4F089557FD9058440F551F30
S113128059F05F3F71F04795880F97FB991F61F004
S11312909F3F79F087950895121613061406551F7B
S11312A0F2CF4695F1DF08C0161617061806991FE7
S11312B0F1CF86957105610508940895E894BB27DC
S11312C066277727CB0197F908950E9478090C9433
S11312D02B090E941D0938F00E94240920F095234F
S11312E011F00C9414090C941A0911240C945F093C
S11312F00E943C0970F3959FC1F3950F50E0551F70
S1131300629FF001729FBB27F00DB11D639FAA2756
S1131310F00DB11DAA1F649F6627B00DA11D661FA5
S1131320829F2227B00DA11D621F739FB00DA11DC6
S1131330621F839FA00D611D221F749F3327A00D80
S1131340611D231F849F600D211D822F762F6A2F1C
S113135011249F5750409AF0F1F088234AF0EE0F81
S1131360FF1FBB1F661F771F881F91505040A9F7AE
S11313709E3F510580F00C9414090C945F095F3F63
S1131380E4F3983ED4F3869577956795B795F795EA
S1131390E7959F5FC1F7FE2B880F911D9695879562
S11313A097F9089597FB072E16F4009407D077FD5C
S11313B009D00E94170A07FC05D03EF49095819548
S11313C09F4F0895709561957F4F0895A1E21A2E5D
S11313D0AA1BBB1BFD010DC0AA1FBB1FEE1FFF1FD5
S11313E0A217B307E407F50720F0A21BB30BE40B25
S11313F0F50B661F771F881F991F1A9469F760956C
S11314007095809590959B01AC01BD01CF01089525
S1131410A29FB001B39FC001A39F700D811D112431
S1131420911DB29F700D811D1124911D0895AA1B59
S1131430BB1B51E107C0AA1FBB1FA617B70710F0BB
S1131440A61BB70B881F991F5A95A9F780959095ED
S10D1450BC01CD010895F894FFCF0C
S113145A23002600290002030101010201030205F7
S113146A0005000400030002030100080040000014
S113147A01000401020304050100080020004000E1
S113148A80000001000401020304050607B400D227
S113149A00FA002C0140017C010000000001020452
S11314AA081020000000000001FEFDFBF7EFDFBF7B
S11314BA7F0102040810204080000000000001009F
S11314CA01020304050000000000010101010101F9
S11314DA010101F1F2F4F8C09990B0C0A49092C04D
S10F14EAF980C0C0C0C0C00001000500B3
S9030000FC
