:100000000C9434000C9451000C9451000C94510049
:100010000C9451000C9451000C9451000C9451001C
:100020000C9451000C9451000C9451000C9451000C
:100030000C9451000C9451000C9451000C945100FC
:100040000C9451000C9451000C9451000C945100EC
:100050000C9451000C9451000C9451000C945100DC
:100060000C9451000C94510011241FBECFEFD8E026
:10007000DEBFCDBF11E0A0E0B1E0ECEAF3E002C0EA
:1000800005900D92A432B107D9F721E0A4E2B1E0C6
:1000900001C01D92AE32B207E1F70E9475000C94C8
:1000A000D4010C9400008FEF8093240108950E94E6
:1000B000CF01809324018F3FB9F0813051F028F0B7
:1000C000823059F0833069F0089580E00E94720117
:1000D000089581E00E947201089582E00E947201F9
:1000E000089583E00E9472010895109228010E94F1
:1000F000FA000E946C010E94530080912801813017
:1001000039F018F0853038F408C00E94570005C057
:100110000E94CA0102C010922801809128018F5FBD
:1001200080932801853048F310922801E6CF833070
:1001300058F5683048F570E0FB01E45EFE4F208121
:10014000FB01EC5EFE4F9081E82FF0E0EE0FFF1F09
:10015000E050FF4F0190F081E02D413059F018F050
:10016000423079F008958181982391838281282BF0
:1001700022830895818189238183828198239283B8
:1001800008958181282B21830895E82FF0E0EE0F58
:10019000FF1FE050FF4FA081B181413061F4129602
:1001A0009C911297E62FF0E0E45EFE4F8081892B50
:1001B00012968C93089512969C911297E62FF0E078
:1001C000EC5EFE4F8081892312968C930895E82F70
:1001D000F0E0EE0FFF1FE050FF4F0190F081E02DA7
:1001E0009081E62FF0E0E45EFE4F8081892309F0E4
:1001F00081E00895CF93C0E00CC0EC2FF0E0EE0F4B
:10020000FF1FE45FFE4F42E0618180810E94970002
:10021000CF5FC43090F3C0E00CC0EC2FF0E0EE0FE5
:10022000FF1FEA5FFE4F40E0618180810E949700DE
:10023000CF5FC33090F3CF910895462FE82FF0E0C1
:10024000EE0FFF1FE45FFE4F618180810E94C500B9
:100250000895CF93DF93D82FC0E00CC0EC2FF0E0CF
:10026000EE0FFF1FE45FFE4F4D2F618180810E94E2
:10027000C500CF5FC43090F3DF91CF9108951F93F5
:10028000CF93DF9380E007C0E82FF0E0E75DFE4FFB
:100290009FEF90838F5F8330B8F310E015C087EA3B
:1002A00091E60197F1F700C00000C12FD0E0FE01F8
:1002B000EE0FFF1FEA5FFE4F618180810E94E70021
:1002C000C75DDE4F88831F5F133048F389E291E0FA
:1002D000DF91CF911F91089584E080932D011092BA
:1002E0002C010895863010F480932D01089580919B
:1002F0002D01813051F028F08230A1F08330F9F0E7
:10030000089581E00E942901089560E080E00E9444
:100310001D0161E081E00E941D0161E082E00E9418
:100320001D01089560E080E00E941D0160E081E011
:100330000E941D0161E082E00E941D01089560E0BD
:1003400080E00E941D0160E081E00E941D0160E0EC
:1003500082E00E941D0108950E943F01FC018081FE
:10036000811106C09281911103C010922C01089551
:10037000811103C081E080932C018281811103C02F
:1003800083E080932C018181811103C082E08093FE
:100390002C0108950E94AC010E94770108950E94EB
:0C03A000AC0180912C010895F894FFCF6F
:1003AC0023002600290001010102010300050004BD
:1003BC0000030002FEFDFBF7EFDFBF7F0102040824
:0403CC00102040803D
:00000001FF
