S0180000466F726E6F5F41546D656761333238702E737265636D
S11300000C9434000C9451000C9451000C94510045
S11300100C9451000C9451000C9451000C94510018
S11300200C9451000C9451000C9451000C94510008
S11300300C9451000C9451000C9451000C945100F8
S11300400C9451000C9451000C9451000C945100E8
S11300500C9451000C9451000C9451000C945100D8
S11300600C9451000C94510011241FBECFEFD8E022
S1130070DEBFCDBF11E0A0E0B1E0EAEDF8E002C0E0
S113008005900D92A435B107D9F721E0A4E5B1E0BC
S113009001C01D92A73AB207E1F70E9475000C94C3
S11300A06B040C9400008FEF8093540108950E9418
S11300B04B04809354018F3FB9F0813051F028F004
S11300C0823059F0833069F0089580E00E94C203C1
S11300D0089581E00E94C203089582E00E94C20351
S11300E0089583E00E94C2030895109258010E946B
S11300F0AF010E94BC030E9453000E94CD020E94E3
S1130100440380915801823079F028F4882331F037
S1130110813039F00CC0853060F009C00E9457006E
S113012008C00E94660405C00E94A30002C0109289
S11301305801809158018F5F809358018530E8F20F
S113014010925801DACF80916501823079F128F458
S1130150882341F08130F1F062C08330B9F18430FA
S1130160E9F15DC0809167018F5F809367018630FC
S113017010F010926701E0916701F0E0EA5EFE4F33
S11301808081813009F04DC08093650182E38093C2
S11301906601089580916601882321F0815080933F
S11301A06601089582E0809365010895E8E7F0E030
S11301B0948180916701892B848387E8828382817B
S11301C08064828383E080936501089580917A003E
S11301D086FD27C084E080936501089580917C00AA
S11301E085FF04C080917900282F30E080917C0045
S11301F085FD09C0E8E7F0E02081318180E0932F9C
S1130200AC01422B9A01E0916701F0E0EE0FFF1F71
S1130210E75AFE4F318320831092650108951092AE
S113022065010895E8E7F0E094819F7794839481D1
S113023090649483823060F4811103C0948190624D
S11302409483813029F4E8E7F0E084818F7D84830E
S1130250623098F4611105C0E8E7F0E082818F7D97
S11302608283613029F4E8E7F0E08281806282834E
S1130270E8E7F0E08381887F83830895863048F43B
S1130280E82FF0E0EE0FFF1FE75AFE4F80819181C7
S1130290089580E090E00895833058F5683048F57B
S11302A070E0FB01EC5DFE4F2081FB01E45EFE4F3C
S11302B09081E82FF0E0EE0FFF1FE050FF4F019018
S11302C0F081E02D413059F018F0423079F0089572
S11302D08181982391838281282B228308958181AF
S11302E08923818382819823928308958181282B95
S11302F021830895E82FF0E0EE0FFF1FE050FF4F39
S1130300A081B181413061F412969C911297E62F3D
S1130310F0E0EC5DFE4F8081892B12968C9308955A
S113032012969C911297E62FF0E0E45EFE4F8081D6
S1130330892312968C930895E82FF0E0EE0FFF1FA7
S1130340E050FF4F0190F081E02D9081E62FF0E026
S1130350EC5DFE4F8081892309F081E00895CF93FD
S1130360C0E00CC0EC2FF0E0EE0FFF1FE25FFE4F89
S113037042E0618180810E944C01CF5FC43090F3E0
S1130380C0E00CC0EC2FF0E0EE0FFF1FEA5FFE4F61
S113039040E0618180810E944C01CF5FC43090F3C2
S11303A042E064E082E00E944C0142E067E082E0C7
S11303B00E944C0142E060E080E00E944C0161E058
S11303C081E00E9412011092910185E080936801FE
S11303D080E01AC0282F30E0F901EE5CFE4F9081D6
S11303E0913089F4A901440F551FFA01EB57FE4FD0
S11303F011821082FA01E756FE4F11821082F90130
S1130400EE56FE4F10828F5F863020F3CF91089511
S113041090E0FC01E759FE4F21E02083611104C004
S1130420FC01E759FE4F1082089590E00EC0292F79
S113043030E0F901E759FE4F41E04083811104C0E7
S1130440F901E759FE4F10829F5F943080F30895BD
S1130450282F843080F48091980190E0A0E0B0E0EF
S113046004C0B695A795979587952A95D2F780FDF0
S113047004C080E0089580E0089581E008950F931A
S11304801F93CF93C0E00CC00C2F10E08C2F0E9460
S11304902802F801E359FE4F8083813029F0CF5FB1
S11304A0C43090F384E001C08C2FCF911F910F9141
S11304B008950E9447030895863048F4E82FF0E039
S11304C0EE0FFF1FEB57FE4F808191810895089531
S11304D0CF93C0E01BC08C2F90E0FC01E45CFE4F86
S11304E02081213091F4FC01E759FE4F2081211134
S11304F002C040E001C041E0880F991FFC01E25FA7
S1130500FE4F618180810E947A01CF5FC43018F36D
S1130510CF9108950F931F93CF93C0E038C00C2F51
S113052010E0F801E85CFE4F8081813079F5F80134
S1130530EE0FFF1FEA5FFE4F618180810E949C01E4
S1130540811112C081E090E0A0E0B0E00C2E04C064
S1130550880F991FAA1FBB1F0A94D2F720919801F4
S1130560822B8093980112C081E090E0A0E0B0E07B
S11305700C2E04C0880F991FAA1FBB1F0A94D2F720
S1130580809590919801892380939801CF5FC4301E
S113059030F2CF911F910F9108950E9468020E943A
S11305A08A020895CF93DF9380919101813019F0ED
S11305B0833031F05CC060E081E00E94120157C0DA
S11305C0C0916801D0E0FE01EE5CFE4F8081813075
S11305D009F044C0FE01EE56FE4F8081883030F5AC
S11305E0FE01E45DFE4F80810E943E01CC0FDD1FC1
S11305F0C758DE4F99838883E0916801F0E0DF01FA
S1130600AA0FBB1FED01C758DE4F88819981A756F9
S1130610BE4F2D913C911197820F931F8D939C9304
S1130620EE56FE4F80818F5F808318C0CE01880F05
S1130630991FFC01E756FE4F20813181369527959D
S11306403695279536952795DC01AB57BE4F2D93EC
S11306503C9311821082CE56DE4F1882809168013D
S11306608F5F80936801863010F01092680180914A
S113067091018F5F80939101843018F081E0809321
S11306809101DF91CF9108950E94D20208950F93B2
S11306901F93CF93DF93EC0100E066C040E064E079
S11306A082E00E947A0110E026C0FE01E00FF11DF5
S11306B0808127E030E0211B310990E002C095954C
S11306C087952A95E2F780FF06C041E060E080E06C
S11306D00E947A0105C040E060E080E00E947A0157
S11306E041E067E082E00E947A0140E067E082E056
S11306F00E947A011F5F1830C0F210E027C0E02F7B
S1130700F0E0E05CFE4F808127E030E0211B3109FE
S113071090E002C0959587952A95E2F780FF06C080
S113072041E060E080E00E947A0105C040E060E0C2
S113073080E00E947A0141E067E082E00E947A0151
S113074040E067E082E00E947A011F5F1830B8F24F
S11307508DEE92E00197F1F700C0000041E064E003
S113076082E00E947A010F5F043008F497CFDF9192
S1130770CF911F910F91089584E08093A601109268
S1130780A5010895863010F48093A6010895CF93AF
S1130790DF9385E090E00E945C02EC018091A60169
S11307A0823061F128F4882341F0813071F057C020
S11307B08330E9F1843029F052C081E00E941502AF
S11307C04EC081E00E9415024AC060E080E00E94B1
S11307D0080261E081E00E94080261E082E00E9478
S11307E00802CD32D14028F060E083E00E94080284
S11307F036C061E083E00E94080231C060E080E01E
S11308000E94080260E081E00E94080261E082E048
S11308100E940802C53FD14028F060E083E00E94B6
S113082008021DC061E083E00E94080218C060E075
S113083080E00E94080260E081E00E94080260E01B
S113084082E00E940802C132D34028F060E083E0D5
S11308500E94080204C061E083E00E940802DF9164
S1130860CF9108950E943F02813051F028F08230E8
S113087059F0833069F0089581E08093A5010895CB
S113088082E08093A501089583E08093A5010895F3
S11308901092A50108950E9432048091A501089543
S11308A08091A601823039F0833041F0813049F0E3
S11308B080E591E008C088E491E005C084E491E01B
S11308C002C08CE491E00E94590208950E94C7037B
S10D08D00E9450040895F894FFCF2D
S11308DA2300260029000101010201030205000583
S11308EA000400030002000000000001FEFDFBF703
S11308FAEFDFBF7F010204081020408000010203D9
S113090A04050000000000010101010101010101C7
S113091AF1F2F4F8C09990B0C0A49092C0F980C0E2
S107092AC0C0C0C0C5
S9030000FC
