S0180000466F726E6F5F41546D656761333238702E737265636D
S11300000C9434000C9451000C9451000C94510045
S11300100C9451000C9451000C9451000C94510018
S11300200C9451000C9451000C9451000C94510008
S11300300C9451000C9451000C9451000C945100F8
S11300400C9451000C9451000C9451000C945100E8
S11300500C9451000C9451000C9451000C945100D8
S11300600C9451000C94510011241FBECFEFD8E022
S1130070DEBFCDBF11E0A0E0B1E0E0ECF5E002C0EE
S113008005900D92A234B107D9F721E0A2E4B1E0C2
S113009001C01D92AA35B207E1F70E9475000C94C5
S11300A0DE020C9400008FEF8093420108950E94B9
S11300B0BE02809342018F3FB9F0813051F028F0A5
S11300C0823059F0833069F0089580E00E946B0219
S11300D0089581E00E946B02089582E00E946B0201
S11300E0089583E00E946B020895109246010E94D5
S11300F0FC000E9465020E9453000E94E701809167
S11301004601813039F018F0853038F408C00E9477
S1130110570005C00E94D90202C010924601809186
S113012046018F5F80934601853038F31092460173
S1130130E4CF833058F5683048F570E0FB01E25EA7
S1130140FE4F2081FB01EA5EFE4F9081E82FF0E034
S1130150EE0FFF1FE050FF4F0190F081E02D413082
S113016059F018F0423079F00895818198239183F1
S11301708281282B2283089581818923818382812E
S11301809823928308958181282B21830895E82F51
S1130190F0E0EE0FFF1FE050FF4FA081B18141302E
S11301A061F412969C911297E62FF0E0E25EFE4F06
S11301B08081892B12968C93089512969C911297A4
S11301C0E62FF0E0EA5EFE4F8081892312968C933D
S11301D00895E82FF0E0EE0FFF1FE050FF4F01906D
S11301E0F081E02D9081E62FF0E0E25EFE4F808109
S11301F0892309F081E00895CF93C0E00CC0EC2F6F
S1130200F0E0EE0FFF1FE25FFE4F42E0618180816C
S11302100E949900CF5FC43090F3C0E00CC0EC2F73
S1130220F0E0EE0FFF1FEA5FFE4F40E06181808146
S11302300E949900CF5FC43090F342E064E082E012
S11302400E94990042E067E082E00E94990042E047
S113025060E080E00E949900CF91089590E0FC0155
S1130260E95BFE4F21E02083611104C0FC01E95BDE
S1130270FE4F1082089590E00EC0292F30E0F9015E
S1130280E95BFE4F41E04083811104C0F901E95B61
S1130290FE4F10829F5F943080F30895282F84309E
S11302A080F48091570190E0A0E0B0E004C0B695DE
S11302B0A795979587952A95D2F780FD04C080E08D
S11302C0089580E0089581E008950F931F93CF93DC
S11302D0C0E00CC00C2F10E08C2F0E944E01F801DE
S11302E0E55BFE4F8083813029F0CF5FC43090F30B
S11302F084E001C08C2FCF911F910F9108950E942B
S1130300EC010895CF93C0E01BC08C2F90E0FC015A
S1130310E65DFE4F2081213091F4FC01E95BFE4F44
S11303202081211102C040E001C041E0880F991FE3
S1130330FC01E25FFE4F618180810E94C700CF5FB4
S1130340C43018F3CF9108950F931F93CF93C0E057
S113035038C00C2F10E0F801EA5DFE4F8081813037
S113036079F5F801EE0FFF1FEA5FFE4F618180818E
S11303700E94E900811112C081E090E0A0E0B0E0A9
S11303800C2E04C0880F991FAA1FBB1F0A94D2F712
S113039020915701822B8093570112C081E090E095
S11303A0A0E0B0E00C2E04C0880F991FAA1FBB1F49
S11303B00A94D2F78095909157018923809357012D
S11303C0CF5FC43030F2CF911F910F9108950E94F6
S11303D082010E94A40108950F931F93CF93DF938A
S11303E0EC0100E06AC040E064E082E00E94C700E3
S11303F010E02AC0FE01E00FF11D808127E030E00B
S1130400211B310990E002C0959587952A95E2F762
S113041080FF06C041E060E080E00E94C70005C0A4
S113042040E060E080E00E94C70041E067E082E0D5
S11304300E94C70040E067E082E00E94C70086EAAD
S11304408A95F1F700C01F5F1830A0F210E02DC0AC
S1130450E02FF0E0E25DFE4F808127E030E0211BD9
S1130460310990E002C0959587952A95E2F780FFBF
S113047006C041E060E080E00E94C70005C040E0A3
S113048060E080E00E94C70041E067E082E00E94F3
S1130490C70040E067E082E00E94C7008DEE92E072
S11304A00197F1F700C000001F5F183088F241E0A7
S11304B064E082E00E94C7000F5F043008F493CF29
S11304C0DF91CF911F910F91089584E0809359019A
S11304D0109258010895863010F4809359010895BC
S11304E080915901813051F028F08230A1F083309D
S11304F0F9F0089581E00E943B01089560E080E0F6
S11305000E942E0161E081E00E942E0161E082E000
S11305100E942E01089560E080E00E942E0160E0B8
S113052081E00E942E0161E082E00E942E01089584
S113053060E080E00E942E0160E081E00E942E01D4
S113054060E082E00E942E0108950E9465018130DE
S113055051F028F0823059F0833069F0089581E039
S113056080935801089582E080935801089583E0B0
S11305708093580108951092580108950E94A5028D
S113058080915801089580915901823039F0833067
S113059041F0813049F08EE391E008C086E391E0B8
S11305A005C082E391E002C08AE391E00E947F01EA
S11305B008950E9470020E94C3020895F894FFCF28
S11305C023002600290001010102010301050005A1
S11305D0000400030002FEFDFBF7EFDFBF7F010212
S11305E00408102040800101010101010101F1F220
S11305F0F4F8C09990B0C0A49092C0F980C0C0C073
S1050600C0C074
S9030000FC
