:100000000C9434000C9451000C9451000C94510049
:100010000C9451000C9451000C9451000C9451001C
:100020000C9451000C9451000C9451000C9451000C
:100030000C9451000C9451000C9451000C945100FC
:100040000C9451000C9451000C9451000C945100EC
:100050000C9451000C9451000C9451000C945100DC
:100060000C9451000C94510011241FBECFEFD8E026
:10007000DEBFCDBF11E0A0E0B1E0EEEDF2E002C0E6
:1000800005900D92A631B107D9F721E0A6E1B1E0C4
:1000900001C01D92A731B207E1F70E94F0000C9455
:1000A0006D010C94000042E065E080E00E940A01CE
:1000B00042E064E080E00E940A0142E063E080E008
:1000C0000E940A0142E062E080E00E940A0141E0F1
:1000D00065E080E00E94380141E064E080E00E9439
:1000E000380141E063E080E00E94380141E062E0D5
:1000F00080E00E94380140E061E081E00E940A0156
:1001000040E062E081E00E940A0140E063E081E0BB
:100110000E940A0108951F93CF93DF9361E081E06D
:100120000E945A01C82F2FE986E891E021508040B3
:100130009040E1F700C0000062E081E00E945A01B7
:10014000182F2FE986E891E0215080409040E1F798
:1001500000C0000063E081E00E945A01D82FC11165
:1001600017C0811115C041E065E080E00E943801B0
:1001700041E064E080E00E94380141E063E080E01B
:100180000E94380141E062E080E00E94380118C01E
:10019000C11105C040E065E080E00E943801D11146
:1001A0000FC040E065E080E00E94380140E064E07C
:1001B00080E00E94380140E063E080E00E94380166
:1001C00011110AC040E065E080E00E94380140E083
:1001D00064E080E00E943801DF91CF911F91089583
:1001E000109216010E94530080911601882319F085
:1001F000853020F405C00E948B0002C010921601C9
:10020000809116018F5F80931601853068F31092FC
:100210001601EACF833058F5683048F570E0FB01ED
:10022000E25FFE4F2081FB01EA5FFE4F9081E82FE5
:10023000F0E0EE0FFF1FE050FF4F0190F081E02D46
:10024000413059F018F0423079F0089581819823B7
:1002500091838281282B2283089581818923818340
:1002600082819823928308958181282B2183089588
:10027000E82FF0E0EE0FFF1FE050FF4FA081B181AB
:10028000413061F412969C911297E62FF0E0E25F04
:10029000FE4F8081892B12968C93089512969C9123
:1002A0001297E62FF0E0EA5FFE4F808189231296D5
:1002B0008C930895E82FF0E0EE0FFF1FE050FF4F02
:1002C0000190F081E02D9081E62FF0E0E25FFE4F9B
:0E02D0008081892309F081E00895F894FFCF22
:1002DE00230026002900FEFDFBF7EFDFBF7F0102A2
:0602EE000408102040800E
:00000001FF
