S0180000466F726E6F5F41546D656761333238702E737265636D
S11300000C9434000C9451000C9451000C94510045
S11300100C9451000C9451000C9451000C94510018
S11300200C9451000C9451000C9451000C94510008
S11300300C9451000C9451000C9451000C945100F8
S11300400C9451000C9451000C9451000C945100E8
S11300500C9451000C9451000C9451000C945100D8
S11300600C9451000C94510011241FBECFEFD8E022
S1130070DEBFCDBF11E0A0E0B1E0E2E7FDE002C0E9
S113008005900D92AE36B107D9F721E0AEE6B1E0A6
S113009001C01D92A73CB207E1F70E9488000C94AE
S11300A0B7060C9400008FEF80936E0108950E94B0
S11300B0AD0480936E018F3F51F1813069F028F0D7
S11300C0823089F08330B1F01CC080E00E9451047A
S11300D083E00E940901089581E00E94510480E0B8
S11300E00E940901089582E00E94510481E00E9467
S11300F00901089583E00E94510482E00E940901ED
S1130100089580E00E94510483E00E94090108954B
S1130110109272010E943E020E944B040E945300FE
S11301200E940C010E94CD040E94C2000E945C0344
S11301300E94D3030E94320180917201823081F0C7
S113014028F48823A9F0813031F010C0833059F0AD
S1130150843071F00BC00E9457000E94C80408C08C
S11301600E94DB0405C00E94C80002C01092720104
S1130170809172018F5F809372018530B8F2109282
S11301807201D4CF1092740183E0809373010895B7
S1130190EF92FF920F931F93CF93DF93E09173013C
S11301A0F0E0EE0FFF1FEE0FFF1FEA5EFE4FE08050
S11301B0F1800281138181E00E941205EC0180919B
S11301C07301833021F461E00E9497021BC0809187
S11301D07401882319F0813061F014C061E083E078
S11301E00E949702EC16FD0668F081E0809374018A
S11301F009C060E083E00E949702C017D10710F0A5
S113020010927401DF91CF911F910F91FF90EF90A5
S113021008958093730108951092810110928201D0
S113022010927E0080E01BC0282F30E0F901EE0F11
S1130230FF1FEB58FE4F11821082F901E45DFE4F5F
S11302409081913059F4863048F4E8E7F0E0468133
S1130250D901AA5DBE4F9C91942B96838F5F863003
S113026018F3089580918101823079F128F488236C
S113027041F08130F1F062C08330B9F18430E9F1AA
S11302805DC0809183018F5F80938301863010F07D
S113029010928301E0918301F0E0E45DFE4F8081E0
S11302A0813009F04DC08093810182E38093820103
S11302B0089580918201882321F0815080938201E6
S11302C0089582E0809381010895E8E7F0E0948145
S11302D080918301892B848387E88283828180646F
S11302E0828383E080938101089580917A0086FD62
S11302F027C084E080938101089580917C0085FF6C
S113030004C080917900282F30E080917C0085FD25
S113031009C0E8E7F0E02081318180E0932FAC014F
S1130320422B9A01E0918301F0E0EE0FFF1FEB589E
S1130330FE4F318320831092810108951092810130
S11303400895E8E7F0E094819F7794839481906422
S11303509483823060F4811103C094819062948309
S1130360813029F4E8E7F0E084818F7D8483623072
S113037098F4611105C0E8E7F0E082818F7D828303
S1130380613029F4E8E7F0E0828180628283E8E763
S1130390F0E08381887F83830895863048F4E82FD2
S11303A0F0E0EE0FFF1FEB58FE4F8081918108951E
S11303B080E090E00895833058F5683048F570E0A7
S11303C0FB01E65CFE4F2081FB01EE5CFE4F908159
S11303D0E82FF0E0EE0FFF1FE050FF4F0190F08197
S11303E0E02D413059F018F0423079F008958181C0
S11303F0982391838281282B2283089581818923E4
S1130400818382819823928308958181282B21837B
S11304100895E82FF0E0EE0FFF1FE050FF4FA0819A
S1130420B181413061F412969C911297E62FF0E06D
S1130430E65CFE4F8081892B12968C930895129668
S11304409C911297E62FF0E0EE5CFE4F80818923A9
S113045012968C930895E82FF0E0EE0FFF1FE05002
S1130460FF4F0190F081E02D9081E62FF0E0E65CF3
S1130470FE4F8081892309F081E00895CF93C0E085
S11304800CC0EC2FF0E0EE0FFF1FE25FFE4F42E0E6
S1130490618180810E94DB01CF5FC43090F3C0E0B2
S11304A00CC0EC2FF0E0EE0FFF1FEA5FFE4F40E0C0
S11304B0618180810E94DB01CF5FC43090F342E010
S11304C064E082E00E94DB0142E067E082E00E9497
S11304D0DB0142E060E080E00E94DB0161E081E05A
S11304E00E94A1011092AD0185E08093840180E017
S11304F01AC0282F30E0F901E85BFE4F908191305B
S113050089F4A901440F551FFA01EF55FE4F1182DA
S11305101082FA01EB54FE4F11821082F901E25568
S1130520FE4F10828F5F863020F3CF91089590E0C4
S1130530FC01EB57FE4F21E02083611104C0FC0154
S1130540EB57FE4F1082089590E00EC0292F30E043
S1130550F901EB57FE4F41E04083811104C0F901DA
S1130560EB57FE4F10829F5F943080F30895282F3D
S1130570843080F48091B40190E0A0E0B0E004C045
S1130580B695A795979587952A95D2F780FD04C0CF
S113059080E0089580E0089581E008950F931F930B
S11305A0CF93C0E00CC00C2F10E08C2F0E94B70238
S11305B0F801E757FE4F8083813029F0CF5FC430C4
S11305C090F384E001C08C2FCF911F910F91089577
S11305D00E94D6030895863048F4E82FF0E0EE0F29
S11305E0FF1FEF55FE4F8081918108950895CF93A9
S11305F0C0E01BC08C2F90E0FC01EE5AFE4F20811E
S1130600213091F4FC01EB57FE4F2081211102C0EF
S113061040E001C041E0880F991FFC01E25FFE4FFA
S1130620618180810E940902CF5FC43018F3CF91A9
S113063008950F931F93CF93C0E038C00C2F10E0A0
S1130640F801E25BFE4F8081813079F5F801EE0F0D
S1130650FF1FEA5FFE4F618180810E942B0281119E
S113066012C081E090E0A0E0B0E00C2E04C0880F3E
S1130670991FAA1FBB1F0A94D2F72091B401822BA1
S11306808093B40112C081E090E0A0E0B0E00C2EB1
S113069004C0880F991FAA1FBB1F0A94D2F7809524
S11306A09091B40189238093B401CF5FC43030F2B8
S11306B0CF911F910F9108950E94F7020E94190390
S11306C00895CF93DF938091AD01813019F0833089
S11306D031F05CC060E081E00E94A10157C0C0918C
S11306E08401D0E0FE01E85BFE4F8081813009F097
S11306F044C0FE01E255FE4F8081883030F5FE0192
S1130700EE5BFE4F80810E94CD01CC0FDD1FCB56E6
S1130710DE4F99838883E0918401F0E0DF01AA0F22
S1130720BB1FED01CB56DE4F88819981AB54BE4F80
S11307302D913C911197820F931F8D939C93E255B9
S1130740FE4F80818F5F808318C0CE01880F991F70
S1130750FC01EB54FE4F2081318136952795369567
S1130760279536952795DC01AF55BE4F2D933C93C5
S113077011821082C255DE4F1882809184018F5FEE
S113078080938401863010F0109284018091AD0131
S11307908F5F8093AD01843018F081E08093AD01C8
S11307A0DF91CF9108950E94610308950F931F93E1
S11307B0CF93DF93EC0100E066C040E064E082E0A8
S11307C00E94090210E026C0FE01E00FF11D8081A5
S11307D027E030E0211B310990E002C09595879510
S11307E02A95E2F780FF06C041E060E080E00E94C5
S11307F0090205C040E060E080E00E94090241E097
S113080067E082E00E94090240E067E082E00E9423
S113081009021F5F1830C0F210E027C0E02FF0E09B
S1130820EA5AFE4F808127E030E0211B310990E035
S113083002C0959587952A95E2F780FF06C041E0AE
S113084060E080E00E94090205C040E060E080E0D2
S11308500E94090241E067E082E00E94090240E050
S113086067E082E00E9409021F5F1830B8F28DEE43
S113087092E00197F1F700C0000041E064E082E0FB
S11308800E9409020F5F043008F497CFDF91CF91E3
S11308901F910F91089584E08093C2011092C101C9
S11308A00895863010F48093C20108958091C201A6
S11308B0823001F128F4882341F0813071F00895E9
S11308C0833029F1843029F0089581E00E94A40244
S11308D0089581E00E94A402089560E080E00E94EF
S11308E0970261E081E00E94970261E082E00E9449
S11308F09702089560E080E00E94970260E081E042
S11309000E94970261E082E00E949702089560E0ED
S113091080E00E94970260E081E00E94970260E01C
S113092082E00E94970208950E94CE02813051F025
S113093028F0823059F0833069F0089581E0809383
S1130940C101089582E08093C101089583E08093FA
S1130950C10108951092C10108950E9494048091E8
S1130960C10108958091C201823039F0833041F091
S1130970813049F086E691E008C08EE591E005C03B
S11309808AE591E002C082E691E00E94E8020895BF
S11309900E9456040E94B204089580E009C0E82F22
S11309A0F0E0EE0FFF1FED53FE4F118210828F5FB8
S11309B08230A8F308950F931F93CF93C0E02CC007
S11309C00C2F10E0F801E659FE4F8081813019F5B3
S11309D0F801E459FE4F808190E00E94EB028057B9
S11309E09E4FBC0180E090E00E94BC0520E030E016
S11309F040E85EE30E944A0620E030E048E452E426
S1130A000E942105000F111F0D531E4F0E948D05DA
S1130A10F80171836083CF5FC23090F2CF911F9150
S1130A200F910895823048F4E82FF0E0EE0FFF1F95
S1130A30ED53FE4F80819181089580E090E0089508
S1130A405058BB27AA270E9438050C9410060E9410
S1130A50020638F00E94090620F039F49F3F19F489
S1130A6026F40C94FF050EF4E095E7FB0C94F905CD
S1130A70E92F0E94210658F3BA1762077307840707
S1130A80950720F079F4A6F50C9443060EF4E0954E
S1130A900B2EBA2FA02D0B01B90190010C01CA0134
S1130AA0A0011124FF27591B99F0593F50F4503EDF
S1130AB068F11A16F040A22F232F342F4427585FD1
S1130AC0F3CF469537952795A795F0405395C9F7E9
S1130AD07EF41F16BA0B620B730B840BBAF09150A1
S1130AE0A1F0FF0FBB1F661F771F881FC2F70EC040
S1130AF0BA0F621F731F841F48F487957795679513
S1130B00B795F7959E3F08F0B0CF9395880F08F0FE
S1130B109927EE0F9795879508950E94290688F0E6
S1130B209F5798F0B92F9927B751B0F0E1F0660FAD
S1130B30771F881F991F1AF0BA95C9F714C0B130EE
S1130B4091F00E944306B1E008950C944306672F88
S1130B50782F8827B85F39F0B93FCCF3869577951D
S1130B606795B395D9F73EF4909580957095619506
S1130B707F4F8F4F9F4F0895E89409C097FB3EF431
S1130B8090958095709561957F4F8F4F9F4F9923D6
S1130B90A9F0F92F96E9BB279395F6958795779554
S1130BA06795B795F111F8CFFAF4BB0F11F460FF14
S1130BB01BC06F5F7F4F8F4F9F4F16C0882311F06C
S1130BC096E911C0772321F09EE8872F762F05C080
S1130BD0662371F096E8862F70E060E02AF09A951B
S1130BE0660F771F881FDAF7880F9695879597F910
S1130BF0089597F99F6780E870E060E008959FEF9B
S1130C0080EC089500240A9416161706180609069F
S1130C10089500240A94121613061406050608956E
S1130C20092E0394000C11F4882352F0BB0F40F4F6
S1130C30BF2B11F460FF04C06F5F7F4F8F4F9F4F36
S1130C40089557FD9058440F551F59F05F3F71F0B8
S1130C504795880F97FB991F61F09F3F79F087951F
S1130C600895121613061406551FF2CF4695F1DFA8
S1130C7008C0161617061806991FF1CF8695710538
S1130C80610508940895E894BB2766277727CB016C
S1130C9097F908950E945D060C9410060E940206BE
S1130CA038F00E94090620F0952311F00C94F90500
S1130CB00C94FF0511240C9444060E94210670F341
S1130CC0959FC1F3950F50E0551F629FF001729FED
S1130CD0BB27F00DB11D639FAA27F00DB11DAA1FFC
S1130CE0649F6627B00DA11D661F829F2227B00D49
S1130CF0A11D621F739FB00DA11D621F839FA00DD4
S1130D00611D221F749F3327A00D611D231F849F23
S1130D10600D211D822F762F6A2F11249F5750407A
S1130D209AF0F1F088234AF0EE0FFF1FBB1F661FF5
S1130D30771F881F91505040A9F79E3F510580F0BE
S1130D400C94F9050C9444065F3FE4F3983ED4F305
S1130D50869577956795B795F795E7959F5FC1F762
S1130D60FE2B880F911D9695879597F90895F89411
S1050D70FFCFAF
S1130D7223002600290001010102010302050005E6
S1130D82000400030002B400D200FA002C01400166
S1130D927C01000000000102040810200000000091
S1130DA20001FEFDFBF7EFDFBF7F01020408102004
S1130DB2408000010203040500000000000101015B
S1130DC2010101010101F1F2F4F8C09990B0C0A44B
S1110DD29092C0F980C0C0C0C0C000010005EE
S9030000FC
