S0180000466F726E6F5F41546D656761333238702E737265636D
S11300000C9434000C9451000C9451000C94510045
S11300100C9451000C9451000C9451000C94510018
S11300200C9451000C9451000C9451000C94510008
S11300300C9451000C94CF090C9451000C94510071
S11300400C9451000C9451000C9451000C945100E8
S11300500C9451000C9451000C9451000C945100D8
S11300600C9451000C94510011241FBECFEFD8E022
S1130070DEBFCDBF11E0A0E0B1E0EEE9F7E102C0E0
S113008005900D92AC39B107D9F722E0ACE9B1E0A3
S113009001C01D92A433B207E1F70E94D4000C946E
S11300A0CD0B0C9400008FEF8093AA0180E00E9496
S11300B094071092AC0108950E9469078093AA01E5
S11300C08F3F09F45CC08130C1F028F0823041F1E7
S11300D08330C9F14BC080E00E94FF0683E00E9498
S11300E07B0187E00E94940720E040E060E085E027
S11300F00E94A9091092AC0142C081E00E94FF064F
S113010080E00E947B0184E00E9494072AE040E0A2
S113011060E085E00E94A90981E08093AC012FC0D2
S113012082E00E94FF0681E00E947B0185E00E943C
S113013094072FE040E060E085E00E94A90981E097
S11301408093AC011CC083E00E94FF0682E00E9401
S11301507B0186E00E94940724E140E060E085E0B2
S11301600E94A90981E08093AC0109C080E00E944B
S1130170FF0683E00E947B0183E00E949407809144
S1130180AC01813081F485E00E94C50981110BC066
S113019085E00E94FF0683E00E947B0182E00E94CA
S11301A094071092AC0108951092AE011092800051
S11301B0E1E8F0E0108280818560808380EF9FEF2A
S11301C09093850080938400EFE6F0E08081816065
S11301D0808378940E94CD040E947E040E94F906D4
S11301E00E9418090E9489070E9453000E947E0100
S11301F00E94C6080E9434010E940A060E943B091C
S11302000E9481060E94A4018091AE01823089F08F
S113021028F4882341F0813049F014C0833061F020
S1130220843069F00FC00E94A0080EC00E945C00D8
S11302300BC00E94D40808C00E943A0105C00E9465
S1130240840702C01092AE018091840090918500D1
S11302500196D1F78091AE018F5F8093AE01853016
S113026058F21092AE01C8CF1092B00183E080938F
S1130270AF010895EF92FF920F931F93CF93DF93F3
S1130280E091AF01F0E0EE0FFF1FEE0FFF1FE35C04
S1130290FE4FE080F1800281138181E00E940A090F
S11302A0EC018091AF01833021F461E00E943405B8
S11302B01BC08091B001882319F0813061F014C013
S11302C061E083E00E943405EC16FD0668F081E0ED
S11302D08093B00109C060E083E00E943405C01738
S11302E0D10710F01092B001DF91CF911F910F91BF
S11302F0FF90EF9008958093AF0108951092BD018F
S11303001092BE0110927E0080E01BC0282F30E0C6
S1130310F901EE0FFF1FEF54FE4F11821082F90115
S1130320ED5AFE4F9081913059F4863048F4E8E755
S1130330F0E04681D901A35BBE4F9C91942B968338
S11303408F5F863018F308958091BD01823079F172
S113035028F4882341F08130F1F062C08330B9F190
S11303608430E9F15DC08091BF018F5F8093BF014C
S1130370863010F01092BF01E091BF01F0E0ED5A19
S1130380FE4F8081813009F04DC08093BD0182E32E
S11303908093BE0108958091BE01882321F081508D
S11303A08093BE01089582E08093BD010895E8E73B
S11303B0F0E094818091BF01892B848387E8828354
S11303C082818064828383E08093BD01089580915B
S11303D07A0086FD27C084E08093BD010895809152
S11303E07C0085FF04C080917900282F30E0809143
S11303F07C0085FD09C0E8E7F0E02081318180E0E0
S1130400932FAC01422B9A01E091BF01F0E0EE0F73
S1130410FF1FEF54FE4F318320831092BD010895D6
S11304201092BD010895E8E7F0E094819F779483EA
S1130430948190649483823060F4811103C0948128
S113044090629483813029F4E8E7F0E084818F7D21
S11304508483623098F4611105C0E8E7F0E082819A
S11304608F7D8283613029F4E8E7F0E08281806245
S11304708283E8E7F0E08381887F83830895863070
S113048048F4E82FF0E0EE0FFF1FEF54FE4F808199
S11304909181089580E090E00895833058F56830A4
S11304A048F570E0FB01EF59FE4F2081FB01E75A4C
S11304B0FE4F9081E82FF0E0EE0FFF1FE050FF4F5A
S11304C00190F081E02D413059F018F0423079F07C
S11304D008958181982391838281282B2283089512
S11304E081818923818382819823928308958181E4
S11304F0282B21830895E82FF0E0EE0FFF1FE05032
S1130500FF4FA081B181413061F412969C91129702
S1130510E62FF0E0EF59FE4F8081892B12968C93E1
S1130520089512969C911297E62FF0E0E75AFE4F39
S11305308081892312968C930895E82FF0E0EE0FC2
S1130540FF1FE050FF4F0190F081E02D9081E62FD6
S1130550F0E0EF59FE4F8081892309F081E008958E
S1130560653608F064E6823001F128F4882349F006
S1130570813089F00895843071F110F18530B1F142
S113058008952FEF629FC001112464E670E00E9479
S1130590830B67BD08952FEF629FC001112464E6A9
S11305A070E00E94830B68BD08952FEF629FC00125
S11305B0112464E670E00E94830B6093890008951F
S11305C02FEF629FC001112464E670E00E94830B48
S11305D060938B0008952FEF629FC001112464E69D
S11305E070E00E94830B6093B30008952FEF629F25
S11305F0C001112464E670E00E94830B6093B40090
S113060008954F925F926F927F928F929F92AF92D2
S1130610BF92EF92FF920F931F93CF93DF93CDB7C7
S1130620DEB765970FB6F894DEBF0FBECDBF7B0172
S1130630082F10E0F801EE0FFF1FE156FE4F208156
S113064031812617370729F4F801E456FE4F8081DB
S11306501AC1813009F45BC020F0823009F4B1C0C2
S113066006C19B01220F331FC901A0E0B0E022277D
S1130670382F492F5A2F60E074E284EF90E00E94F3
S1130680970B49015A018AE0E9E1F1E0DE01119694
S113069001900D928A95E1F785E0E3E2F1E0DE0155
S11306A01F9601900D928A95E1F790E044244A94B4
S11306B0542C320180E028C0A92FB0E0FD01EE0FD8
S11306C0FF1F21E030E02C0F3D1FE20FF31F60817C
S11306D0718168197909AB0122F444275527461B17
S11306E0570B052E000C660B770B44155505660554
S11306F0770548F42FE030E02C0F3D1FA20FB31F05
S11307008C912A013B019F5F9530B0F2B1C0CB01BF
S1130710A0E0B0E09C01AD01012E1AE0220F331FCE
S1130720441F551F1A95D1F7102D60E074E284EF31
S113073090E00E94970B49015A018AE0E9E1F1E057
S1130740DE01119601900D928A95E1F785E0E3E2CE
S1130750F1E0DE011F9601900D928A95E1F790E099
S113076044244A94542C320180E028C0A92FB0E0DC
S1130770FD01EE0FFF1F21E030E02C0F3D1FE20FC3
S1130780F31F6081718168197909AB0122F4442750
S11307905527461B570B052E000C660B770B44158B
S11307A055056605770548F42FE030E02C0F3D1F12
S11307B0A20FB31F8C912A013B019F5F9530B0F2C9
S11307C057C09B01220F331FC901A0E0B0E02227CC
S11307D0382F492F5A2F60E074E284EF90E00E9492
S11307E0970B49015A018EE0E8E2F1E0DE0111962F
S11307F001900D928A95E1F787E0E6E3F1E0DE01EE
S11308001F9601900D928A95E1F790E044244A9452
S1130810542C320180E028C0A92FB0E0FD01EE0F76
S1130820FF1F21E030E02C0F3D1FE20FF31F60811A
S1130830718168197909AB0122F444275527461BB5
S1130840570B052E000C660B770B441555056605F2
S1130850770548F42FE030E02C0F3D1FA20FB31FA3
S11308608C912A013B019F5F9730B0F201C080E078
S1130870F801EE0FFF1FE156FE4FF182E082F8010E
S1130880E456FE4F808365960FB6F894DEBF0FBE24
S1130890CDBFDF91CF911F910F91FF90EF90BF904B
S11308A0AF909F908F907F906F905F904F9008953E
S11308B0CF93DF93C82FD62F0E940103C13049F094
S11308C018F0C23069F012C095B5987F892B85BDA8
S11308D00DC0E0E8F0E09181987F892B818306C008
S11308E0E0EBF0E09181987F892B8183EC2FF0E09D
S11308F0EB55FE4FD083DF91CF910895CF93DF93D3
S1130900D0E0C0E044C0EC2FF0E0E759FE4F808116
S11309108130E1F5C230B1F028F4CC2349F0C13084
S113092061F02BC0C430E1F0A0F0C53001F125C066
S113093084B5816C84BDD0E020C084B5816384BD5E
S1130940D0E01BC0E0E8F0E08081816C8083D1E0DE
S113095014C0E0E8F0E0808181638083D1E00DC0C1
S1130960E0EBF0E08081816C8083D2E006C0E0EBB4
S1130970F0E0808181638083D2E060EA7FE08D2FA4
S11309800E94580460E08C2F0E94B002CF5FC730F1
S113099008F4B9CFDF91CF910895CF93DF93C0E0EE
S11309A00CC0EC2FF0E0EE0FFF1FE05FFE4F42E0C3
S11309B0618180810E944D02CF5FC43090F3C0E01A
S11309C00CC0EC2FF0E0EE0FFF1FE85FFE4F40E09D
S11309D0618180810E944D02CF5FC43090F342E078
S11309E064E082E00E944D0242E067E082E00E94FF
S11309F04D0242E060E080E00E944D02C6E0D1E09A
S1130A0042E0698188810E944D0241E069818881C8
S1130A100E947B0261E081E00E9413021092E901CE
S1130A2085E08093C00180E01AC0282F30E0F901EE
S1130A30EB58FE4F9081913089F4A901440F551F62
S1130A40FA01E352FE4F11821082FA01EF50FE4F79
S1130A5011821082F901E651FE4F10828F5F8630B9
S1130A6020F3DF91CF91089590E0FC01EF53FE4F06
S1130A7021E02083611104C0FC01EF53FE4F10827A
S1130A80089590E00EC0292F30E0F901EF53FE4F96
S1130A9041E04083811104C0F901EF53FE4F1082FD
S1130AA09F5F943080F30895282F843080F48091E0
S1130AB0F00190E0A0E0B0E004C0B695A79597954A
S1130AC087952A95D2F780FD04C080E0089580E0E0
S1130AD0089581E008950F931F93CF93C0E00CC055
S1130AE00C2F10E08C2F0E945405F801EB53FE4F9D
S1130AF08083813029F0CF5FC43090F384E001C05B
S1130B008C2FCF911F910F9108950E948406089510
S1130B10863048F4E82FF0E0EE0FFF1FE352FE4F5B
S1130B208081918108950895882329F06AE085E001
S1130B300E94B002089560E085E00E94B00208952A
S1130B40BC0182E00E9458040895CF93C0E01BC00A
S1130B508C2F90E0FC01E158FE4F2081213091F46C
S1130B60FC01EF53FE4F2081211102C040E001C07F
S1130B7041E0880F991FFC01E05FFE4F6181808195
S1130B800E947B02CF5FC43018F3CF9108950F9376
S1130B901F93CF93C0E038C00C2F10E0F801E55844
S1130BA0FE4F8081813079F5F801EE0FFF1FE85F79
S1130BB0FE4F618180810E949D02811112C081E0FB
S1130BC090E0A0E0B0E00C2E04C0880F991FAA1F8B
S1130BD0BB1F0A94D2F72091F001822B8093F0017D
S1130BE012C081E090E0A0E0B0E00C2E04C0880FB9
S1130BF0991FAA1FBB1F0A94D2F780959091F00108
S1130C0089238093F001CF5FC43030F2CF911F91DC
S1130C100F9108950E94A5050E94C7050895CF93DA
S1130C20DF938091E901813019F0833031F05CC0A9
S1130C3060E081E00E94130257C0C091C001D0E07F
S1130C40FE01EB58FE4F8081813009F044C0FE0163
S1130C50E651FE4F8081883030F5FE01E159FE4FA8
S1130C6080810E943F02CC0FDD1FCF52DE4F99835B
S1130C708883E091C001F0E0DF01AA0FBB1FED0102
S1130C80CF52DE4F88819981AF50BE4F2D913C9158
S1130C901197820F931F8D939C93E651FE4F808191
S1130CA08F5F808318C0CE01880F991FFC01EF501D
S1130CB0FE4F2081318136952795369527953695B7
S1130CC02795DC01A352BE4F2D933C9311821082D1
S1130CD0C651DE4F18828091C0018F5F8093C0019E
S1130CE0863010F01092C0018091E9018F5F8093EB
S1130CF0E901843018F081E08093E901DF91CF911C
S1130D0008950E940F0608950F931F93CF93DF93C6
S1130D10EC0100E066C040E064E082E00E947B02F7
S1130D2010E026C0FE01E00FF11D808127E030E0D5
S1130D30211B310990E002C0959587952A95E2F729
S1130D4080FF06C041E060E080E00E947B0205C0B5
S1130D5040E060E080E00E947B0241E067E082E0E6
S1130D600E947B0240E067E082E00E947B021F5FFA
S1130D701830C0F210E027C0E02FF0E0ED57FE4F2E
S1130D80808127E030E0211B310990E002C0959575
S1130D9087952A95E2F780FF06C041E060E080E095
S1130DA00E947B0205C040E060E080E00E947B027C
S1130DB041E067E082E00E947B0240E067E082E07D
S1130DC00E947B021F5F1830B8F28DEE92E001970B
S1130DD0F1F700C0000041E064E082E00E947B0281
S1130DE00F5F043008F497CFDF91CF911F910F91DB
S1130DF0089584E08093FE011092FD0108958630E9
S1130E0010F48093FE0108958091FE01823029F14F
S1130E1028F4882349F0813099F00895843041F012
S1130E2048F1853049F0089581E00E944105089514
S1130E3081E00E944105089581E00E9441050895E2
S1130E4060E080E00E94340561E081E00E943405A6
S1130E5061E082E00E943405089560E080E00E9431
S1130E60340560E081E00E94340561E082E00E9484
S1130E703405089560E080E00E94340560E081E07C
S1130E800E94340560E082E00E94340508950E94C7
S1130E906B05823099F028F4882341F0813051F0B9
S1130EA00895833079F0843081F0089581E080934F
S1130EB0FD01089582E08093FD01089583E080930D
S1130EC0FD0108951092FD0108958FEF8093FD01B7
S1130ED008950E9447078091FD0108958091FE01C5
S1130EE0823039F0833041F0813049F083E991E078
S1130EF008C08BE891E005C087E891E002C08FE864
S1130F0091E00E94850508950E9404070E946E07DF
S1130F10089583E08093FF0110920102109202026F
S1130F2081E080930002089593E090931801883043
S1130F3050F480931801833020F081E08093FF0106
S1130F4008958093FF01089580EA9FE00E94A00520
S1130F5080910102823071F128F4882359F08130A4
S1130F60B1F06CC0843009F44BC0B8F1853009F499
S1130F705AC064C081E00E94940521E040E060E032
S1130F8082E00E94A90981E080930102089582E031
S1130F900E94C509811156C021E040E060E082E072
S1130FA00E94A90982E08093010280E00E949405D6
S1130FB081E0089582E00E94C509811145C021E0C5
S1130FC040E060E082E00E94A90983E0809301028E
S1130FD081E00E94940581E0089582E00E94C509A1
S1130FE0811134C021E040E060E082E00E94A90960
S1130FF084E08093010280E00E94940581E00895DA
S113100082E00E94C509811123C021E040E060E034
S113101082E00E94A90985E08093010281E00E9498
S1131020940581E0089582E00E94C509811112C0EF
S1131030109201020E94940580E00895109201022A
S113104080E0089581E0089581E0089581E00895A5
S113105081E0089581E0089580911801853079F048
S113106018F4843031F01DC0863079F0873099F05F
S113107018C085E594E00E94A00521E013C08FE329
S113108093E00E94A00522E00DC082E793E10E9454
S1131090A00522E007C088E891E00E94A00521E0B5
S11310A001C020E080910202882319F0813069F0A8
S11310B017C040E060E083E00E94A90981E00E943B
S11310C0940581E080930202089583E00E94C5099B
S11310D081110AC00E9494051092020280E00895D2
S11310E01092020280E0089581E0089580EA9FE072
S11310F00E94A00580910002882379F08130C9F410
S113110023E040E060E084E00E94A90981E00E94BD
S113111094051092000281E0089584E00E94C509BC
S113112081110CC00E94940581E08093000280E04C
S1131130089581E08093000280E0089581E008959D
S11311408091FF01813071F028F0823099F0833072
S1131150C9F008950E94A407811117C083E0809309
S1131160FF0108950E942C0881110FC083E0809331
S1131170FF0108950E947608811107C083E08093DF
S1131180FF01089580E00E949405089580E009C05D
S1131190E82FF0E0EE0FFF1FED5FFD4F118210828C
S11311A08F5F8230A8F308950F931F93CF93C0E00D
S11311B02BC00C2F10E0F801E956FE4F80818130DE
S11311C011F5F801E756FE4F80810E94880580578B
S11311D09E4FBC0180E090E00E94880A20E030E04D
S11311E040E85EE30E94160B20E030E048E452E45D
S11311F00E94ED09000F111F0D5F1D4F0E94590A37
S1131200F80171836083CF5FC23098F2CF911F9150
S11312100F910895823048F4E82FF0E0EE0FFF1F9D
S1131220ED5FFD4F80819181089580E090E0089505
S113123080E00DC0E82FF0E09F01220F331FE20F82
S1131240F31FE75FFD4F1082128211828F5F85309A
S113125088F380E00DC0E82FF0E0EE0FFF1FEE0FE3
S1131260FF1FE85EFD4F10821182128213828F5F8E
S1131270873088F308958091A8019091A901883E50
S1131280934009F065C05CC0282F30E0F901EE0FEF
S1131290FF1FEE0FFF1FE85EFD4F9081913009F0B4
S11312A04DC0F901EE0FFF1FEE0FFF1FE85EFD4F6B
S11312B093819923B9F09150F901EE0FFF1FEE0FBE
S11312C0FF1FE85EFD4F938352814181952B942B40
S11312D0A9F5220F331F220F331FF901E85EFD4FDA
S11312E010822CC0F901EE0FFF1FEE0FFF1FE85E06
S11312F0FD4F9281992361F0220F331F220F331F78
S1131300F901E85EFD4F915092839BE3938316C0ED
S1131310F901EE0FFF1FEE0FFF1FE85EFD4F9181F5
S1131320992361F0220F331F220F331FF901E85E66
S1131330FD4F915091839BE3928393838F5F01C010
S113134080E0873008F4A0CF1092A9011092A80180
S113135008958730C8F490E0FC01EE0FFF1FEE0FF4
S1131360FF1FE85EFD4F1082618342832383462B77
S1131370242B09F40895880F991F880F991FFC01E5
S1131380E85EFD4F81E080830895E82FF0E0EE0FE2
S1131390FF1FEE0FFF1FE85EFD4F808108951F922F
S11313A00F920FB60F9211248F939F9380EF9FEFAC
S11313B090938500809384008091A8019091A90165
S11313C001969093A9018093A8019F918F910F900A
S11313D00FBE0F901F9018955058BB27AA270E9444
S11313E0040A0C94DC0A0E94CE0A38F00E94D50A42
S11313F020F039F49F3F19F426F40C94CB0A0EF430
S1131400E095E7FB0C94C50AE92F0E94ED0A58F316
S1131410BA17620773078407950720F079F4A6F5D5
S11314200C940F0B0EF4E0950B2EBA2FA02D0B018C
S1131430B90190010C01CA01A0011124FF27591B15
S113144099F0593F50F4503E68F11A16F040A22F1B
S1131450232F342F4427585FF3CF4695379527958C
S1131460A795F0405395C9F77EF41F16BA0B620B8B
S1131470730B840BBAF09150A1F0FF0FBB1F661FD2
S1131480771F881FC2F70EC0BA0F621F731F841F15
S113149048F4879577956795B795F7959E3F08F03B
S11314A0B0CF9395880F08F09927EE0F97958795FD
S11314B008950E94F50A88F09F5798F0B92F99274C
S11314C0B751B0F0E1F0660F771F881F991F1AF02B
S11314D0BA95C9F714C0B13091F00E940F0BB1E076
S11314E008950C940F0B672F782F8827B85F39F075
S11314F0B93FCCF3869577956795B395D9F73EF4C4
S113150090958095709561957F4F8F4F9F4F08956B
S1131510E89409C097FB3EF4909580957095619589
S11315207F4F8F4F9F4F9923A9F0F92F96E9BB273F
S11315309395F695879577956795B795F111F8CFBB
S1131540FAF4BB0F11F460FF1BC06F5F7F4F8F4F26
S11315509F4F16C0882311F096E911C0772321F01C
S11315609EE8872F762F05C0662371F096E8862FB4
S113157070E060E02AF09A95660F771F881FDAF70B
S1131580880F9695879597F9089597F99F6780E84E
S113159070E060E008959FEF80EC089500240A94C1
S11315A01616170618060906089500240A9412163A
S11315B01306140605060895092E0394000C11F46D
S11315C0882352F0BB0F40F4BF2B11F460FF04C01A
S11315D06F5F7F4F8F4F9F4F089557FD9058440F73
S11315E0551F59F05F3F71F04795880F97FB991F7E
S11315F061F09F3F79F0879508951216130614063B
S1131600551FF2CF4695F1DF08C0161617061806C7
S1131610991FF1CF86957105610508940895E894A2
S1131620BB2766277727CB0197F908950E94290BDA
S11316300C94DC0A0E94CE0A38F00E94D50A20F0ED
S1131640952311F00C94C50A0C94CB0A11240C9424
S1131650100B0E94ED0A70F3959FC1F3950F50E0B3
S1131660551F629FF001729FBB27F00DB11D639F50
S1131670AA27F00DB11DAA1F649F6627B00DA11DF6
S1131680661F829F2227B00DA11D621F739FB00D9C
S1131690A11D621F839FA00D611D221F749F33270C
S11316A0A00D611D231F849F600D211D822F762FA5
S11316B06A2F11249F5750409AF0F1F088234AF082
S11316C0EE0FFF1FBB1F661F771F881F91505040EE
S11316D0A9F79E3F510580F00C94C50A0C94100B99
S11316E05F3FE4F3983ED4F3869577956795B79575
S11316F0F795E7959F5FC1F7FE2B880F911D96958F
S1131700879597F9089597FB072E16F4009407D050
S113171077FD09D00E94B90B07FC05D03EF49095E3
S113172081959F4F0895709561957F4F0895A1E22B
S11317301A2EAA1BBB1BFD010DC0AA1FBB1FEE1F47
S1131740FF1FA217B307E407F50720F0A21BB30B92
S1131750E40BF50B661F771F881F991F1A9469F70E
S113176060957095809590959B01AC01BD01CF016A
S11317700895AA1BBB1B51E107C0AA1FBB1FA617D4
S1131780B70710F0A61BB70B881F991F5A95A9F726
S111179080959095BC01CD010895F894FFCF8B
S113179E23002600290002030101010201030205B0
S11317AE00050004000300020301000800400000CD
S11317BE010004010203040501000800200040009A
S11317CE80000001000401020304050607B400D2E0
S11317DE00FA002C0140017C01000000000102040B
S11317EE081020000000000001FEFDFBF7EFDFBF34
S11317FE7F01020408102040800000000000010058
S113180E01020304050000000000010101010101B1
S113181E010101F1F2F4F8C09990B0C0A49092C005
S10F182EF980C0C0C0C0C000010005006B
S9030000FC
