S0180000466F726E6F5F41546D656761333238702E737265636D
S11300000C9434000C9451000C9451000C94510045
S11300100C9451000C9451000C9451000C94510018
S11300200C9451000C9451000C9451000C94510008
S11300300C9451000C9451000C9451000C945100F8
S11300400C9451000C9451000C9451000C945100E8
S11300500C9451000C9451000C9451000C945100D8
S11300600C9451000C94510011241FBECFEFD8E022
S1130070DEBFCDBF11E0A0E0B1E0E2EEF4E002C0EB
S113008005900D92A833B107D9F721E0A8E3B1E0B8
S113009001C01D92A334B207E1F70E9475000C94CD
S11300A06F020C9400008FEF8093380108950E9432
S11300B04F02809338018F3FB9F0813051F028F01E
S11300C0823059F0833069F0089580E00E94F7018E
S11300D0089581E00E94F701089582E00E94F701EB
S11300E0089583E00E94F701089510923C010E9454
S11300F0FA000E94F1010E94530080913C0181307A
S113010039F018F0853038F408C00E94570005C053
S11301100E946A0202C010923C0180913C018F5FF0
S113012080933C01853048F310923C01E6CF833044
S113013058F5683048F570E0FB01E45EFE4F20811D
S1130140FB01EC5EFE4F9081E82FF0E0EE0FFF1F05
S1130150E050FF4F0190F081E02D413059F018F04C
S1130160423079F008958181982391838281282BEC
S113017022830895818189238183828198239283B4
S113018008958181282B21830895E82FF0E0EE0F54
S1130190FF1FE050FF4FA081B181413061F41296FE
S11301A09C911297E62FF0E0E45EFE4F8081892B4C
S11301B012968C93089512969C911297E62FF0E074
S11301C0EC5EFE4F8081892312968C930895E82F6C
S11301D0F0E0EE0FFF1FE050FF4F0190F081E02DA3
S11301E09081E62FF0E0E45EFE4F8081892309F0E0
S11301F081E00895CF93C0E00CC0EC2FF0E0EE0F47
S1130200FF1FE45FFE4F42E0618180810E949700FE
S1130210CF5FC43090F3C0E00CC0EC2FF0E0EE0FE1
S1130220FF1FEA5FFE4F40E0618180810E949700DA
S1130230CF5FC33090F342E064E082E00E94970015
S113024042E067E082E00E94970042E060E080E0E4
S11302500E949700CF910895462FE82FF0E0EE0F0B
S1130260FF1FE45FFE4F618180810E94C5000895F5
S1130270CF93DF93D82FC0E00CC0EC2FF0E0EE0F4B
S1130280FF1FE45FFE4F4D2F618180810E94C500F6
S1130290CF5FC43090F3DF91CF9108951F93CF9334
S11302A0DF9380E007C0E82FF0E0E25CFE4F9FEFB1
S11302B090838F5F8330B8F310E015C087EA91E62E
S11302C00197F1F700C00000C12FD0E0FE01EE0F4E
S11302D0FF1FEA5FFE4F618180810E94E700C25CDC
S11302E0DE4F88831F5F133048F38EE391E0DF9184
S11302F0CF911F9108950E947E0108950F931F933B
S1130300CF93DF93EC0100E064C040E064E082E05E
S11303100E94C50010E023C0888127E030E0211B43
S1130320310990E002C0959587952A95E2F780FF00
S113033006C041E060E080E00E94C50005C040E0E6
S113034060E080E00E94C50041E067E082E00E9436
S1130350C50040E067E082E00E94C5001F5F1830DE
S1130360D8F210E027C0E02FF0E0EC5DFE4F808172
S113037027E030E0211B310990E002C09595879574
S11303802A95E2F780FF06C041E060E080E00E9429
S1130390C50005C040E060E080E00E94C50041E087
S11303A067E082E00E94C50040E067E082E00E94CE
S11303B0C5001F5F1830B8F241E064E082E00E949B
S11303C0C50087E893E10197F1F700C0000021968A
S11303D00F5F043008F499CFDF91CF911F910F91F3
S11303E0089584E08093420110924101089586307B
S11303F010F480934201089580914201813051F0BC
S113040028F08230A1F08330F9F0089581E00E9451
S11304103801089560E080E00E942C0161E081E0F1
S11304200E942C0161E082E00E942C01089560E0AA
S113043080E00E942C0160E081E00E942C0161E0D8
S113044082E00E942C01089560E080E00E942C016B
S113045060E081E00E942C0160E082E00E942C01B7
S113046008950E944E01FC018081811106C0928191
S1130470911103C0109241010895811103C081E0DC
S1130480809341018281811103C083E08093410103
S11304908181811103C082E08093410108950E940B
S11304A0310280914101089580914201823039F0F6
S11304B0833041F0813049F084E391E008C08CE25C
S11304C091E005C088E291E002C080E391E00E94DF
S11304D07B0108950E94FC010E9454020895F8943F
S10504E0FFCF48
S11304E22300260029000101010201030005000482
S11304F200030002FEFDFBF7EFDFBF7F01020408E9
S113050210204080F1F2F4F8C09990B0C0A4909207
S10B0512C0F980C0C0C0C0C0E4
S9030000FC
