S0180000466F726E6F5F41546D656761333238702E737265636D
S11300000C9434000C9451000C9451000C94510045
S11300100C9451000C9451000C9451000C94510018
S11300200C9451000C9451000C9451000C94510008
S11300300C9451000C9451000C9451000C945100F8
S11300400C9451000C9451000C9451000C945100E8
S11300500C9451000C9451000C9451000C945100D8
S11300600C9451000C94510011241FBECFEFD8E022
S1130070DEBFCDBF11E0A0E0B1E0E4EBF2E102C0ED
S113008005900D92AA39B107D9F721E0AAE9B1E0A8
S113009001C01D92A43FB207E1F70E9497000C949F
S11300A058090C9400008FEF80939A0180E00E941D
S11300B0B00608950E948C0680939A018F3FB1F197
S11300C0813081F028F08230B9F08330F9F028C013
S11300D080E00E94300683E00E941F0181E00E94BC
S11300E0B006089581E00E94300680E00E941F015E
S11300F081E00E94B006089582E00E94300681E00B
S11301000E941F0181E00E94B006089583E00E94CE
S1130110300682E00E941F0181E00E94B00608952B
S113012080E00E94300683E00E941F01089510922F
S11301309E010E9401040E94AD030E942A060E94AF
S1130140AC060E9453000E9422010E9425070E94CF
S1130150D8000E943B050E94B2050E94480180918C
S11301609E01823099F028F4882341F0813049F0CF
S113017013C0833071F0843089F00EC00E94FF06F2
S11301800DC00E945A000E94A70608C00E943307AF
S113019005C00E94DE0002C010929E0180919E0163
S11301A08F5F80939E018530A0F210929E01D1CF83
S11301B01092A00183E080939F010895EF92FF9233
S11301C00F931F93CF93DF93E0919F01F0E0EE0F25
S11301D0FF1FEE0FFF1FE45CFE4FE080F180028101
S11301E0138181E00E946907EC0180919F018330B3
S11301F021F461E00E9461041BC08091A001882366
S113020019F0813061F014C061E083E00E94610460
S1130210EC16FD0668F081E08093A00109C060E05F
S113022083E00E946104C017D10710F01092A0016E
S1130230DF91CF911F910F91FF90EF9008958093DC
S11302409F0108951092AD011092AE0110927E00AC
S113025080E01BC0282F30E0F901EE0FFF1FEF559F
S1130260FE4F11821082F901EE5AFE4F90819130B7
S113027059F4863048F4E8E7F0E04681D901A45BFC
S1130280BE4F9C91942B96838F5F863018F308950C
S11302908091AD01823079F128F4882341F08130D6
S11302A0F1F062C08330B9F18430E9F15DC080912E
S11302B0AF018F5F8093AF01863010F01092AF01D1
S11302C0E091AF01F0E0EE5AFE4F8081813009F0F9
S11302D04DC08093AD0182E38093AE010895809177
S11302E0AE01882321F081508093AE01089582E00D
S11302F08093AD010895E8E7F0E094818091AF0127
S1130300892B848387E8828382818064828383E06B
S11303108093AD01089580917A0086FD27C084E022
S11303208093AD01089580917C0085FF04C0809185
S11303307900282F30E080917C0085FD09C0E8E732
S1130340F0E02081318180E0932FAC01422B9A01AF
S1130350E091AF01F0E0EE0FFF1FEF55FE4F318348
S113036020831092AD0108951092AD010895E8E73D
S1130370F0E094819F779483948190649483823095
S113038060F4811103C0948190629483813029F4D4
S1130390E8E7F0E084818F7D8483623098F4611112
S11303A005C0E8E7F0E082818F7D8283613029F423
S11303B0E8E7F0E0828180628283E8E7F0E083810D
S11303C0887F83830895863048F4E82FF0E0EE0FA9
S11303D0FF1FEF55FE4F80819181089580E090E0EA
S11303E00895833058F5683048F570E0FB01E05A11
S11303F0FE4F2081FB01E85AFE4F9081E82FF0E088
S1130400EE0FFF1FE050FF4F0190F081E02D4130CF
S113041059F018F0423079F008958181982391833E
S11304208281282B2283089581818923818382817B
S11304309823928308958181282B21830895E82F9E
S1130440F0E0EE0FFF1FE050FF4FA081B18141307B
S113045061F412969C911297E62FF0E0E05AFE4F59
S11304608081892B12968C93089512969C911297F1
S1130470E62FF0E0E85AFE4F8081892312968C9390
S11304800895E82FF0E0EE0FFF1FE050FF4F0190BA
S1130490F081E02D9081E62FF0E0E05AFE4F80815C
S11304A0892309F081E00895AF92BF92CF92DF9241
S11304B0EF92FF921F93CF93DF93CDB7DEB765978B
S11304C00FB6F894DEBF0FBECDBF6B01E12CF12C4B
S11304D00B2EB9E0CC0CDD1CEE1CFF1CBA95D1F739
S11304E0B02D813009F44BC020F0823009F48DC066
S11304F0D1C08AE0E8E1F1E0DE01119601900D92AD
S11305008A95E1F785E0E2E2F1E0DE011F960190D1
S11305100D928A95E1F710E024C0A12EB12CF501CB
S1130520EE0FFF1F81E090E08C0F9D1FE80FF91F75
S11305302081318140E050E060E074E284EF90E09B
S11305400E9422092C153D054E055F0548F0EFE099
S1130550F0E0EC0FFD1FEA0DFB1D808191E005C06A
S11305601F5F1530D0F290E080E0911101C085E06A
S1130570E0E0F0E09181987F892B81838BC08AE051
S1130580E8E1F1E0DE01119601900D928A95E1F720
S113059085E0E2E2F1E0DE011F9601900D928A957A
S11305A0E1F710E024C0A12EB12CF501EE0FFF1FDE
S11305B081E090E08C0F9D1FE80FF91F20813181AD
S11305C040E050E060E074E284EF90E00E94220991
S11305D02C153D054E055F0548F0EFE0F0E0EC0F0B
S11305E0FD1FEA0DFB1D808191E005C01F5F1530E2
S11305F0D0F290E080E0911101C085E0E0E0F0E00D
S11306009181987F892B818345C08EE0E7E2F1E0F8
S1130610DE01119601900D928A95E1F787E0E5E3FA
S1130620F1E0DE011F9601900D928A95E1F710E04A
S113063024C0A12EB12CF501EE0FFF1F81E090E044
S11306408C0F9D1FE80FF91F2081318140E050E09D
S113065060E074E284EF90E00E9422092C153D05CD
S11306604E055F0548F0EFE0F0E0EC0FFD1FEA0DEA
S1130670FB1D808191E005C01F5F1730D0F290E030
S113068080E0911101C087E0E0E0F0E09181987F83
S1130690892B818365960FB6F894DEBF0FBECDBF5C
S11306A0DF91CF911F91FF90EF90DF90CF90BF909B
S11306B0AF900895653608F064E6823011F128F4AD
S11306C0882349F0813091F00895843081F120F13C
S11306D08530C1F108952FEF629FC001112464E6B3
S11306E070E00E940E096093030008952FEF629F4B
S11306F0C001112464E670E00E940E0960930400B6
S113070008952FEF629FC001112464E670E00E94F7
S11307100E096093090008952FEF629FC001112410
S113072064E670E00E940E0960930B0008952FEFB9
S1130730629FC001112464E670E00E940E09609378
S1130740030008952FEF629FC001112464E670E056
S11307500E940E09609304000895CF93DF93D0E0C4
S1130760C0E049C0EC2FF0E0E859FE4F80818130B1
S113077009F040C0C230D1F028F4CC2349F0C13094
S113078071F02FC0C43001F1C0F0C53021F129C08F
S1130790E0E0F0E08081816C8083D0E022C0E0E082
S11307A0F0E0808181638083D0E01BC0E0E0F0E072
S11307B08081816C8083D1E014C0E0E0F0E080812E
S11307C081638083D1E00DC0E0E0F0E08081816C42
S11307D08083D2E006C0E0E0F0E080818163808322
S11307E0D2E060EA7FE08D2F0E94540260E08C2FFB
S11307F00E945A03CF5FC73008F4B4CFDF91CF9182
S11308000895CF93C0E00CC0EC2FF0E0EE0FFF1F73
S1130810E05FFE4F42E0618180810E94F101CF5F81
S1130820C43090F3C0E00CC0EC2FF0E0EE0FFF1FDB
S1130830E85FFE4F40E0618180810E94F101CF5F5B
S1130840C43090F342E064E082E00E94F10142E0AF
S113085067E082E00E94F10142E060E080E00E94F3
S1130860F101E6E0F1E042E0618180810E94F10162
S113087061E081E00E94B7011092D90185E0809384
S1130880B00180E01AC0282F30E0F901EC58FE4F87
S11308909081913089F4A901440F551FFA01E35363
S11308A0FE4F11821082FA01EF51FE4F1182108225
S11308B0F901E652FE4F10828F5F863020F3CF910C
S11308C0089590E0FC01EF54FE4F21E02083611174
S11308D004C0FC01EF54FE4F1082089590E00EC056
S11308E0292F30E0F901EF54FE4F41E0408381119C
S11308F004C0F901EF54FE4F10829F5F943080F3DF
S11309000895282F843080F48091E00190E0A0E0E5
S1130910B0E004C0B695A795979587952A95D2F728
S113092080FD04C080E0089580E0089581E008958A
S11309300F931F93CF93C0E00CC00C2F10E08C2FAB
S11309400E948104F801EB54FE4F8083813029F02A
S1130950CF5FC43090F384E001C08C2FCF911F91FE
S11309600F9108950E94B5050895863048F4E82F44
S1130970F0E0EE0FFF1FE353FE4F80819181089555
S11309800895882329F063E685E00E945A030895B8
S113099060E085E00E945A030895803D27E09207B5
S11309A020F0BC0182E00E9454020895CF93C0E07D
S11309B01BC08C2F90E0FC01E258FE4F20812130B7
S11309C091F4FC01EF54FE4F2081211102C040E05C
S11309D001C041E0880F991FFC01E05FFE4F618177
S11309E080810E941F02CF5FC43018F3CF91089515
S11309F00F931F93CF93C0E038C00C2F10E0F80181
S1130A00E658FE4F8081813079F5F801EE0FFF1F23
S1130A10E85FFE4F618180810E944102811112C012
S1130A2081E090E0A0E0B0E00C2E04C0880F991F94
S1130A30AA1FBB1F0A94D2F72091E001822B809356
S1130A40E00112C081E090E0A0E0B0E00C2E04C010
S1130A50880F991FAA1FBB1F0A94D2F78095909103
S1130A60E00189238093E001CF5FC43030F2CF915D
S1130A701F910F9108950E94D6040E94F8040895CE
S1130A80CF93DF938091D901813019F0833031F015
S1130A905CC060E081E00E94B70157C0C091B00122
S1130AA0D0E0FE01EC58FE4F8081813009F044C053
S1130AB0FE01E652FE4F8081883030F5FE01E25996
S1130AC0FE4F80810E94E301CC0FDD1FCF53DE4F28
S1130AD099838883E091B001F0E0DF01AA0FBB1F86
S1130AE0ED01CF53DE4F88819981AF51BE4F2D91D7
S1130AF03C911197820F931F8D939C93E652FE4F66
S1130B0080818F5F808318C0CE01880F991FFC01FC
S1130B10EF51FE4F208131813695279536952795E3
S1130B2036952795DC01A353BE4F2D933C93118238
S1130B301082C652DE4F18828091B0018F5F80937D
S1130B40B001863010F01092B0018091D9018F5F0E
S1130B508093D901843018F081E08093D901DF912A
S1130B60CF9108950E94400508950F931F93CF934A
S1130B70DF93EC0100E066C040E064E082E00E94A4
S1130B801F0210E026C0FE01E00FF11D808127E066
S1130B9030E0211B310990E002C0959587952A9594
S1130BA0E2F780FF06C041E060E080E00E941F029F
S1130BB005C040E060E080E00E941F0241E067E081
S1130BC082E00E941F0240E067E082E00E941F0270
S1130BD01F5F1830C0F210E027C0E02FF0E0EE579E
S1130BE0FE4F808127E030E0211B310990E002C0F4
S1130BF0959587952A95E2F780FF06C041E060E06D
S1130C0080E00E941F0205C040E060E080E00E9496
S1130C101F0241E067E082E00E941F0240E067E0BB
S1130C2082E00E941F021F5F1830B8F28DEE92E03E
S1130C300197F1F700C0000041E064E082E00E9407
S1130C401F020F5F043008F497CFDF91CF911F91FB
S1130C500F91089584E08093EE011092ED010895C0
S1130C60863010F48093EE0108958091EE01823075
S1130C7001F128F4882341F0813071F00895833024
S1130C8029F1843029F0089581E00E946E040895CA
S1130C9081E00E946E04089560E080E00E94610497
S1130CA061E081E00E94610461E082E00E946104ED
S1130CB0089560E080E00E94610460E081E00E94A9
S1130CC0610461E082E00E946104089560E080E0D4
S1130CD00E94610460E081E00E94610460E082E0BF
S1130CE00E94610408950E949804813051F028F014
S1130CF0823059F0833069F0089581E08093ED01EA
S1130D00089582E08093ED01089583E08093ED01DE
S1130D1008951092ED0108950E9473068091ED01EB
S1130D2008958091EE01823039F0833041F08130B2
S1130D3049F082E991E008C08AE891E005C086E8BC
S1130D4091E002C08EE891E00E94B20408950E94EE
S1130D5035060E949106089583E08093EF0108957B
S1130D6093E09093EF01843010F48093EF010895A1
S1130D7080EA9FE00E94CD0481E00E94C1042FE735
S1130D808AE196E0215080409040E1F700C00000E5
S1130D9080E00E94C1042FE38DE093E02150804065
S1130DA09040E1F700C0000081E00E94C1042FEBF5
S1130DB087E299E0215080409040E1F700C00000B4
S1130DC080E00E94C10480E0089580EA9FE00E94D0
S1130DD0CD0481E00E94C1042FE38DE093E0215013
S1130DE080409040E1F700C0000080E00E94C10410
S1130DF080E0089580E00E94C10480E0089580911D
S1130E00EF01813071F028F0823099F08330C9F01D
S1130E1008950E94B806811117C083E08093EF0102
S1130E2008950E94E50681110FC083E08093EF01CD
S1130E3008950E94FA06811107C083E08093EF01B0
S1130E40089580E00E94C104089580E009C0E82F5D
S1130E50F0E0EE0FFF1FE051FE4F118210828F5F12
S1130E608230A8F308950F931F93CF93C0E02BC053
S1130E700C2F10E0F801EA56FE4F8081813011F505
S1130E80F801E856FE4F80810E94B50480579E4FBA
S1130E90BC0180E090E00E94130820E030E040E8CC
S1130EA05EE30E94A10820E030E048E452E40E949E
S1130EB07807000F111F00511E4F0E94E407F8012C
S1130EC071836083CF5FC23098F2CF911F910F91ED
S1130ED00895823048F4E82FF0E0EE0FFF1FE05150
S1130EE0FE4F80819181089580E090E008955058EC
S1130EF0BB27AA270E948F070C9467080E945908F1
S1130F0038F00E94600820F039F49F3F19F426F469
S1130F100C9456080EF4E095E7FB0C945008E92F66
S1130F200E94780858F3BA17620773078407950775
S1130F3020F079F4A6F50C949A080EF4E0950B2EA3
S1130F40BA2FA02D0B01B90190010C01CA01A00117
S1130F501124FF27591B99F0593F50F4503E68F172
S1130F601A16F040A22F232F342F4427585FF3CFB3
S1130F70469537952795A795F0405395C9F77EF484
S1130F801F16BA0B620B730B840BBAF09150A1F0CD
S1130F90FF0FBB1F661F771F881FC2F70EC0BA0F53
S1130FA0621F731F841F48F4879577956795B795DB
S1130FB0F7959E3F08F0B0CF9395880F08F09927D6
S1130FC0EE0F9795879508950E94800888F09F57A3
S1130FD098F0B92F9927B751B0F0E1F0660F771F59
S1130FE0881F991F1AF0BA95C9F714C0B13091F04F
S1130FF00E949A08B1E008950C949A08672F782FFC
S11310008827B85F39F0B93FCCF386957795679513
S1131010B395D9F73EF490958095709561957F4F7F
S11310208F4F9F4F0895E89409C097FB3EF4909525
S11310308095709561957F4F8F4F9F4F9923A9F0AD
S1131040F92F96E9BB279395F6958795779567953C
S1131050B795F111F8CFFAF4BB0F11F460FF1BC080
S11310606F5F7F4F8F4F9F4F16C0882311F096E913
S113107011C0772321F09EE8872F762F05C06623C1
S113108071F096E8862F70E060E02AF09A95660F7A
S1131090771F881FDAF7880F9695879597F9089533
S11310A097F99F6780E870E060E008959FEF80EC17
S11310B0089500240A9416161706180609060895BA
S11310C000240A9412161306140605060895092E20
S11310D00394000C11F4882352F0BB0F40F4BF2B8F
S11310E011F460FF04C06F5F7F4F8F4F9F4F0895CF
S11310F057FD9058440F551F59F05F3F71F04795C5
S1131100880F97FB991F61F09F3F79F087950895A9
S1131110121613061406551FF2CF4695F1DF08C0C8
S1131120161617061806991FF1CF869571056105E5
S113113008940895E894BB2766277727CB0197F98D
S113114008950E94B4080C9467080E94590838F066
S11311500E94600820F0952311F00C9450080C9420
S1131160560811240C949B080E94780870F3959FEC
S1131170C1F3950F50E0551F629FF001729FBB278A
S1131180F00DB11D639FAA27F00DB11DAA1F649F26
S11311906627B00DA11D661F829F2227B00DA11DD9
S11311A0621F739FB00DA11D621F839FA00D611D5F
S11311B0221F749F3327A00D611D231F849F600D80
S11311C0211D822F762F6A2F11249F5750409AF0A9
S11311D0F1F088234AF0EE0FFF1FBB1F661F771F35
S11311E0881F91505040A9F79E3F510580F00C9400
S11311F050080C949B085F3FE4F3983ED4F3869523
S113120077956795B795F795E7959F5FC1F7FE2B9F
S1131210880F911D9695879597F9089597FB072E4A
S113122016F4009407D077FD09D00E94440907FC06
S113123005D03EF4909581959F4F089570956195E2
S11312407F4F0895A1E21A2EAA1BBB1BFD010DC0FE
S1131250AA1FBB1FEE1FFF1FA217B307E407F50762
S113126020F0A21BB30BE40BF50B661F771F881F3E
S1131270991F1A9469F760957095809590959B01D4
S1131280AC01BD01CF010895AA1BBB1B51E107C0EE
S1131290AA1FBB1FA617B70710F0A61BB70B881F02
S11312A0991F5A95A9F780959095BC01CD01089591
S10712B0F894FFCFDC
S11312B4230026002900020301010102010302059F
S11312C400050004000300020100080040000001BE
S11312D4000401020304050100080020004000800A
S11312E4000001000401020304050607B400D2004F
S11312F4FA002C0140017C010000000001020408F2
S11313041020000000000001FEFDFBF7EFDFBF7FAB
S113131401020408102040800000000000010001C4
S113132402030405000000000001010101010101A0
S11313340101F1F2F4F8C09990B0C0A49092C0F9FC
S10D134480C0C0C0C0C00001000555
S9030000FC
