S0180000466F726E6F5F41546D656761333238702E737265636D
S11300000C9434000C9451000C9451000C94510045
S11300100C9451000C9451000C9451000C94510018
S11300200C9451000C9451000C9451000C94510008
S11300300C9451000C9451000C9451000C945100F8
S11300400C9451000C9451000C9451000C945100E8
S11300500C9451000C9451000C9451000C945100D8
S11300600C9451000C94510011241FBECFEFD8E022
S1130070DEBFCDBF11E0A0E0B1E0EAE0F3E002C0F2
S113008005900D92A432B107D9F721E0A4E2B1E0C2
S113009001C01D92A832B207E1F70E9494000C94AB
S11300A083010C9400000E94110181E00E94400130
S11300B00895CF93DF930E945601EC01888181114A
S11300C007C09A81911104C081E00E94400129C0B7
S11300D0811107C081E00E94400160E080E00E943D
S11300E034018A8181110FC081E00E94400160E0E7
S11300F080E00E94340160E081E00E94340160E00D
S113010082E00E943401898181110BC081E00E9448
S1130110400160E080E00E94340160E081E00E94E0
S11301203401DF91CF910895109224010E9453006D
S113013080912401882319F0853020F405C00E94A1
S1130140590002C010922401809124018F5F809392
S11301502401853068F310922401EACF833058F5E6
S1130160683048F570E0FB01E45EFE4F2081FB013E
S1130170EC5EFE4F9081E82FF0E0EE0FFF1FE050A1
S1130180FF4F0190F081E02D413059F018F04230DA
S113019079F008958181982391838281282B228389
S11301A0089581818923818382819823928308958C
S11301B08181282B21830895E82FF0E0EE0FFF1FA3
S11301C0E050FF4FA081B181413061F412969C91BF
S11301D01297E62FF0E0E45EFE4F8081892B1296A1
S11301E08C93089512969C911297E62FF0E0EC5EA2
S11301F0FE4F8081892312968C930895E82FF0E0B6
S1130200EE0FFF1FE050FF4F0190F081E02D908131
S1130210E62FF0E0E45EFE4F8081892309F081E05F
S11302200895CF93C0E00CC0EC2FF0E0EE0FFF1F59
S1130230E45FFE4F42E0618180810E94AE00CF5FA7
S1130240C43090F3C0E00CC0EC2FF0E0EE0FFF1FC1
S1130250EA5FFE4F40E0618180810E94AE00CF5F83
S1130260C33090F3CF910895462FE82FF0E0EE0FBE
S1130270FF1FE45FFE4F618180810E94DC000895CE
S1130280CF93DF93D82FC0E00CC0EC2FF0E0EE0F3B
S1130290FF1FE45FFE4F4D2F618180810E94DC00CF
S11302A0CF5FC43090F3DF91CF9108951F93CF9324
S11302B0DF9380E007C0E82FF0E0EB5DFE4F9FEF97
S11302C090838F5F8330B8F310E015C087EA91E61E
S11302D00197F1F700C00000C12FD0E0FE01EE0F3E
S11302E0FF1FEA5FFE4F618180810E94FE00CB5DAB
S11302F0DE4F88831F5F133048F385E291E0DF917E
S10D0300CF911F910895F894FFCFE8
S113030A230026002900010101020103000500045B
S113031A00030002FEFDFBF7EFDFBF7F01020408C2
S107032A10204080DB
S9030000FC
