:100000000C9434000C9449000C9449000C94490061
:100010000C9449000C9449000C9449000C9449003C
:100020000C9449000C9449000C9449000C9449002C
:100030000C9449000C9449000C9449000C9449001C
:100040000C9449000C9449000C9449000C9449000C
:100050000C9449000C9449000C9449000C944900FC
:100060000C9449000C94490011241FBECFEFD8E036
:10007000DEBFCDBF11E0A0E0B1E0E2E9F1E002C0F7
:1000800005900D92A631B107D9F70E944B000C9450
:10009000C7000C94000042E060E082E00E94630030
:1000A00040E060E082E00E9491002FEF84E39CE05A
:1000B000215080409040E1F700C0000060E082E005
:1000C0000E94B300F2CF833058F5683048F570E0F5
:1000D000FB01E25FFE4F2081FB01EA5FFE4F908152
:1000E000E82FF0E0EE0FFF1FE050FF4F0190F0818E
:1000F000E02D413059F018F0423079F008958181B7
:10010000982391838281282B2283089581818923DA
:10011000818382819823928308958181282B218372
:100120000895E82FF0E0EE0FFF1FE050FF4FA08191
:10013000B181413061F412969C911297E62FF0E064
:10014000E25FFE4F8081892B12968C930895129660
:100150009C911297E62FF0E0EA5FFE4F80818923A1
:1001600012968C930895E82FF0E0EE0FFF1FE050F9
:10017000FF4FA081B18112969C911297E62FF0E07B
:10018000E25FFE4F8081892712968C930895F89440
:02019000FFCF9F
:10019200230026002900FEFDFBF7EFDFBF7F0102EF
:0601A2000408102040805B
:00000001FF
